:020000040000FA
:1000000088480020150400001D0400001F040000A3
:10001000210400002304000025040000000000006B
:1000200000000000000000000000000027040000A5
:100030000000000000000000290400002B04000064
:100040002D0400002D0400005D0C00002D040000B4
:100050002D0400002D0400002D0400002D040000DC
:100060002D0400002D0400002D0400002D040000CC
:100070002D0400002D0400002D0400002D040000BC
:100080002D0400002D0400002D0400002D040000AC
:100090002D0400002D0400002D0400002D0400009C
:1000A0002D0400002D0400002D0400002D0400008C
:1000B0002D0400002D0400000000000000000000DE
:1000C0002D0400002D0400002D0400002D0400006C
:1000D0002D0400002D0400000000000000000000BE
:1000E0000000000000000000000000000000000010
:1000F0000000000000000000000000000000000000
:1001000000000000000000000000000000000000EF
:1001100000000000000000000000000000000000DF
:10040000DFF80CD000F05CFA004800471D1F000028
:10041000884800200648804706480047FEE7FEE778
:10042000FEE7FEE7FEE7FEE7FEE7FEE7FEE7000089
:10043000010A00000104000010B5431A934209D2DA
:100440008318881803E010F8011D03F8011D521EDF
:10045000F9D210BD40EA01039B0703D009E008C9A7
:10046000121F08C0042AFAD203E011F8013B00F879
:10047000013B521EF9D210BDD2B201E000F8012BAF
:10048000491EFBD270470022F6E710B513460A4614
:1004900004461946FFF7F0FF204610BD00F0004269
:1004A00030F000400AD0C10D01F56071C0F31600B4
:1004B00042EA0151C208400711437047002001463B
:1004C000704730B50B46014600202022012409E088
:1004D00021FA02F59D4205D303FA02F5491B04FAFD
:1004E00002F52844151EA2F10102F1DC30BD2DE910
:1004F000F05F0546002092469B46884606468146A8
:1005000040241BE0284641464746224600F0F9F9C0
:1005100053465A46C01A914110D3114618462246F6
:1005200000F0E0F92D1A67EB01084F462246012042
:10053000002100F0D7F917EB00094E41201EA4F16D
:100540000104DFDC484631462A464346BDE8F09FB9
:100550002DE9FE4F804681EA0300C00F0C46009053
:1005600021F0004123F00045B8EB0200A94105D27B
:100570004046214690461C460B46024623F000406A
:10058000104347D0270DC7F30A00C3F30A51029066
:10059000401A019040286BDAC3F3130040F4801B2B
:1005A0000098924620B10023D2EB030A63EB0B0BB9
:1005B00001985946C0F14002504600F093F90646B2
:1005C0000D4650465946019A00F0ABF910EB080071
:1005D0006141002487EA115284EAE7731A4340D04C
:1005E000009A62B3019A012A4FEA075215DC001BF8
:1005F00061EB02014FF0004202EA0752CDE90042EE
:10060000001C41F5801132462B4600F0ABF903B0D7
:10061000BDE8F08F40462146F9E7001B61EB02017F
:10062000001C41F5801300185B412018A2F500174B
:1006300047EB030140EAD570B6196D4111E06D0832
:100640004FEA360645EAC0754FEA0752001B61EBD8
:100650000201001C41F5801149084FEA30000019E1
:10066000514132462B4603B0BDE8F04F00F06BB964
:100670000098012240000023D0EB020263EBE073FC
:10068000009821464FEAE074B8EB000061EB0401EA
:10069000E9E783F000435BE781F0004158E72DE98B
:1006A000FE4F81EA030404F0004421F0004100946D
:1006B0004FF0000B23F0004350EA01045ED052EAF1
:1006C00003045BD0C3F30A54C1F30A552C44A4F2CB
:1006D000F3340194A0FB0254C1F3130141F48011DF
:1006E000C3F3130343F4801301FB024400FB034EE6
:1006F000840A970A44EA815447EA8357A4FB0768AF
:1007000002958D0A05FB07854FEA932C04FB0C54D8
:100710002705029D4FEA065847EA1637B5EB08054C
:100720006EEB070C870E920E47EA811742EA83129E
:10073000A7FB0201B6EB0B0164EB00042B0D43EAAF
:100740000C335E1844EB1C50DA465146E7FB0201BD
:10075000C5F313044FEA0B3343EA14534FEA043250
:10076000019C43EA0603A4F10C040294009CCDE929
:1007700000B400F0F7F803B0BDE8F08F00200146A8
:10078000F9E72DE9F04D81EA030404F0004B21F074
:10079000004514464FF0000A23F0004150EA0502DC
:1007A00020D054EA01021DD0C5F30A570246C5F312
:1007B0001303C1F31300C1F30A5640F4801543F448
:1007C0008013A7EB0608101BD64608F2FD3873EB22
:1007D000050002D308F1010801E092185B41B8F16D
:1007E000000F03DA00200146BDE8F08D00204FF431
:1007F0008011064684460EE0171B73EB050705D3F0
:10080000121B63EB050306434CEA010C49084FEA4F
:10081000300092185B4150EA0107EDD152EA030023
:1008200012D082EA040083EA0501084305D0101BB8
:10083000AB4106D20122002306E000224FF0004324
:1008400002E06FF0010253101AEB06004CEB085166
:1008500010EB0A0041EB0B01BDE8F04D00F073B85E
:10086000C1F30A52C1F3130140F2FF3341F4801186
:100870009A4202DA00200146704740F233439A421E
:10088000A2F2334202DC524200F03BB800F02AB838
:1008900030B5041E71F1000404DB4FF00044404207
:1008A00064EB0101141E73F1000405DB1C464FF0DC
:1008B0000043524263EB0403994208BF904230BDAB
:1008C000064C074D06E0E06840F0010394E807009D
:1008D00098471034AC42F6D3FFF796FD6C2B00001E
:1008E0008C2B0000202A04DB203A00FA02F10020C1
:1008F00070479140C2F1200320FA03F3194390405E
:100900007047202A04DB203A21FA02F000217047C8
:1009100021FA02F3D040C2F1200291400843194667
:100920007047202A06DBCB17203A41FA02F043EA4F
:10093000E07306E041FA02F3D040C2F12002914098
:1009400008431946704710B5141E73F1000408DA05
:10095000401C41F1000192185B411A4301D120F083
:10096000010010BD2DE9F04D92469B4611B1B1FA40
:1009700081F202E0B0FA80F220329046FFF7B2FF37
:1009800004460F4640EA0A0041EA0B0153465A4624
:10099000084313D0114653EA010019D0C8F14002B0
:1009A0005046FFF7AEFF05460E46504659464246B2
:1009B000FFF798FF084305D0012004E020463946A0
:1009C000BDE8F08D0020054346EAE0762C4337432E
:1009D0000A986305E40AA0EB08000022FD0A44EA35
:1009E00047540A3002D500200146E9E701051019F5
:1009F0006941DDE9084500196941BDE8F04DA2E70C
:100A0000F0B58C480022041D0378211D081D012625
:100A1000062B17D125782D0714D10D78C5F30315B2
:100A2000032D03D1077817F0F00F0ED0042D03D15A
:100A3000077817F0F00F08D0052D03D1057815F0D1
:100A4000F00F02D0062B09D014E04FF08055D5F8F6
:100A50004452794FC5F342353D6002E025782D07B9
:100A600008D10D78C5F30315032D03D1057815F0D2
:100A7000F00F02D0062B06D01DE0704D2F6827F036
:100A800080772F601AE025782D0714D10D78C5F3F3
:100A90000315032D03D1077817F0F00F0ED0042DA6
:100AA00003D1077817F0F00F08D0052D03D1057892
:100AB00015F0F00F02D0062B0AD015E04FF080455C
:100AC000C5F80C21C5F810215B4D2D1F2A6002E0EE
:100AD00025782D0708D10D78C5F30315032D03D113
:100AE000057815F0F00F02D0062B05D066E0524CC9
:100AF00003236434236002E023781B075ED1097866
:100B0000C1F30311052959D1007810F0F00F55D128
:100B10004B4800684B4908604948001D0068091DA2
:100B20000860474808300068091D086044480C30D8
:100B30000068091D0860424810300068091D0860FF
:100B40003F4814300068091D08603D4818300068AF
:100B50003C49203108603A481C300068091D086093
:100B6000374820300068091D086035482430006887
:100B7000091D0860324828300068091D08603048A7
:100B80002C300068091D08602D48303000682D4960
:100B9000403108602A4834300068091D0860284840
:100BA00038300068091D086025483C300068091D80
:100BB0000860234840300068091D08601F487438E9
:100BC000016841F470010160BFF34F8FBFF36F8F75
:100BD0004FF01021D1F80002002803DBD1F8000209
:100BE000002822DA184B1E6018480468002CFCD03C
:100BF0001524C1F800420568002DFCD0C1F804425C
:100C000001680029FCD01A6001680029FCD0BFF3FC
:100C10004F8F0A48F03801680D4A01F4E061114332
:100C20000160BFF34F8F00BFFDE70B490948086023
:100C3000F0BD0000E00F00F03C050040FCED00E0DE
:100C40000404001020C5004004E5014000E4014018
:100C50000400FA050090D003100000200348007F34
:100C600008B101F06BBE01F0E5BD0000680800208E
:100C70000FB4054B10B503A9044A029800F0CAF856
:100C800010BC5DF814FB0000491A00000C000020A5
:100C900002E008C8121F08C1002AFAD17047704745
:100CA000002001E001C1121F002AFBD170470000A3
:100CB0002DE9FF5FDDE90220010DDDF838B00243C8
:100CC00018D044F61050A1F2FF3141430D140F9893
:100CD000012820D0A5EB0B00401C5FEA000A4FF072
:100CE0000004474EDFF81C91A046504616D5CAF1C5
:100CF000000728E00F98012443A2012808D0002112
:100D000000980F9BC0E90021C0E90243BDE8FF9FA6
:100D10006FEA0B01F4E7CBF10000DEE7074612E0D3
:100D2000F80707D02246334640464946FFF7B7FC4E
:100D3000804689462246334610461946FFF7AFFCE7
:100D400004460E467F10002FEAD1DDE90201BAF118
:100D5000000F42464B4602DAFFF7A1FC01E0FFF725
:100D600010FD04460E460022284BFFF791FD03D8E4
:100D70004FF0FF30014607E00022254B2046314668
:100D8000FFF7E6FBFFF76CFD102409E0002C0ADBFF
:100D90000A220023FFF7ABFB019B30321A55641E79
:100DA00050EA0102F2D1641C019AC4F11103144407
:100DB0000F9A012A03D0012208430DD10AE008430B
:100DC00004D000204FF0110B0F9080E7A3EB0B0530
:100DD0006D1E0DE05B4504DD4FF0000205F10105DD
:100DE00004E003DA4FF00002A5F10105002AECD07F
:100DF00000980F99C0E90231C0E9004586E700007C
:100E0000000024400000F03F300000000000F043EC
:100E10000000E03F2DE9FF4F95B09B46894606460E
:100E200000250FE2252877D100242746F84A012122
:100E3000059400E0044316F8013F203B01FA03F05B
:100E40001042F7D130782A2811D06FF02F03307874
:100E5000A0F13002092A16D8059A44F0020402EBE8
:100E6000820203EB42021044761C0590EFE759F82A
:100E7000042B0592002A03DA504244F400540590F2
:100E800044F00204761C30782E2816D116F8010F93
:100E900044F004042A280DD06FF02F023078A0F11E
:100EA0003003092B09D807EB870302EB4303C7186C
:100EB000761CF3E759F8047B761C30786C280FD049
:100EC00006DC4C2817D068280DD06A2814D104E01D
:100ED000742810D07A280FD10DE044F400140AE0F1
:100EE00044F4801401E044F440147278824202D148
:100EF00004F58014761C761C307866280BD013DC41
:100F0000582877D009DC002875D04528F6D0462827
:100F1000F4D047281AD19DE118E0632835D0642821
:100F200079D0652812D195E1702873D008DC672844
:100F3000F1D069286FD06E280DD06F2806D1B5E0AA
:100F400073282CD0752875D0782874D05A461799F4
:100F500090476D1C75E1C4F30250022809D00328A4
:100F60000DD0D9F8001004280DD00D6009F1040946
:100F700067E1D9F80010EA17C1E90052F6E7D9F89D
:100F800000100D80F2E70D70F0E719F8041B8DF8E2
:100F9000001000208DF80100EA46012003E059F816
:100FA00004AB4FF0FF3061074FF0000102D40DE0B9
:100FB00008F101018846B9420FDA8045F8DB1AF8DA
:100FC00008100029F4D108E008F1010188468142A7
:100FD000FADB1AF808100029F6D105985B46A0EB59
:100FE000080721463846179A00F094FA284400EB87
:100FF000080507E04DE029E10DE01AF8010B5A461B
:1010000017999047B8F10108F7D25B462146384658
:10101000179A13E142E00A220092C4F302524FF001
:10102000000A022A08D059F804CB032A4FEAEC71CF
:101030000AD00DE029E02AE009F1070121F00702BA
:10104000F2E802C1914609E00FFA8CFC4FEAEC711C
:10105000042A03D14FFA8CFC4FEAEC71002907DA1D
:101060000A460021DCF1000C61EB02012D2202E0B6
:10107000220504D52B228DF80420012203E0E2078B
:1010800001D02022F7E7904659E00A2102E0102221
:101090000DE010214FF0000A00910BE010224FF0FC
:1010A000000A44F004040827009203E008224FF0ED
:1010B000000A0092C4F30252022A05D059F804CB68
:1010C0000021032A08D009E009F1070121F00702F5
:1010D000F2E802C1914605E01FFA8CFC042A01D116
:1010E0000CF0FF0C4FF00008220728D5702806D01E
:1010F000009B83F0100353EA0A0305D00EE0402260
:101100008DF80420012208E05CEA010206D03022BA
:101110008DF804208DF8050002229046009B83F094
:10112000080353EA0A030AD15CEA010201D162070B
:1011300005D530228DF804204FF001087F1E582875
:1011400004D034A003900EA802900DE036A0F9E779
:1011500053466046009AFFF7CAF984460398825CBA
:101160000298401E029002705CEA0100F0D10298E1
:1011700006A9081A00F1200A600702D524F4803479
:1011800000E00127574502DDA7EB0A0000E0002040
:1011900000EB0A01009005984144401A0590E003D5
:1011A00006D45B462146179A059800F0B3F905442A
:1011B000002706E001A85A46C05D179990476D1CAC
:1011C0007F1C4745F6DBE0030CD55B462146179AAA
:1011D000059800F09FF9054404E030205A4617991D
:1011E00090476D1C0099481E00900029F5DC08E02E
:1011F000029802995A460078491C02911799904723
:101200006D1CBAF10001AAF1010AF1DC65E10000F0
:1012100009280100303132333435363738396162CC
:101220006364656600000000303132333435363790
:1012300038394142434445460000000000F058F967
:101240000544761C307800287FF4ECAD19B02846B0
:10125000BDE8F08F620700D4062709F1070222F0EB
:10126000070CFCE80223E14603F000485FEA080CA3
:1012700002D00FF2702C0DE05FEA045C02D50FF291
:10128000682C07E05FEAC47C02D00FF2602C01E01A
:10129000AFF2700C4FF0FF3823F00043CDF850C090
:1012A00065280CD006DC452809D046281DD04728E3
:1012B0003DD13DE0662818D067287ED138E0002176
:1012C000112F01DB112000E0781CCDE9000106A9F7
:1012D0000EA8FFF7EDFCDDE90F010E9A0391002146
:1012E000009207F1010A04914DE04FF00040009791
:1012F000CDE9011006A90EA8FFF7DAFCDDE90F021F
:1013000003920E9B11990022DDF80CA00093049229
:1013100011B9791C00EB010AB7EB0A0004D4C0F143
:10132000FF3007F1010A0490AAEB0700019044E0A6
:10133000012F00DA01270021112F01DD112000E02B
:101340003846CDE9000106A90EA8FFF7B1FCDDE99A
:101350000F010E9A0391002104910092BA462107D1
:101360000CD40399514500DA8A46BAF1010F05DD24
:10137000009AAAF10101515C302908D0B84202DA82
:1013800010F1040F06DA0121CDE9011015E0AAF1F0
:101390000101E9E7002805DC049901440491AAEB66
:1013A000000102E0411C514500DD8A460499401AC3
:1013B000401C01904FF000400290200704D4019897
:1013C000504501DBCDF8048000208DF84F000298D5
:1013D0000DF14F07B0F1004F25D02B200E90029851
:1013E0004FF0020800280CDA404202902D200E90A7
:1013F00007E00A210298FFF764F83031029007F8FD
:10140000011DB8F10001A8F10108F2DC02980028E2
:10141000EFD1791E0E980870307800F0200040F06F
:10142000450007F8020D12A8C01B00F10708149828
:10143000007800B1012000EB0A01019801EBE07196
:1014400005984144401A401E0590E00306D45B46CF
:101450002146179A059800F05DF805441498007825
:1014600018B15A46179990476D1CE00324D55B4686
:101470002146179A059800F04DF805441CE00498A1
:10148000002807DBDDE90301884203DD0098405CAA
:10149000179901E0179930205A469047049805F1B2
:1014A0000105401C04900198401E019004D12E209B
:1014B0005A46179990476D1CBAF10001AAF1010A2A
:1014C000DDDC05E017F8010B5A46179990476D1CB3
:1014D000B8F10001A8F10108F4DC5B462146179A37
:1014E0000598ABE62D0000002B0000002000000056
:1014F0002DE9F041044600251E461746880404D411
:1015000005E039462020B0476D1C641EF9D52846F9
:10151000BDE8F0812DE9F041044600251E469046C5
:10152000C80301D5302700E02027880404D505E052
:1015300041463846B0476D1C641EF9D52846BDE8C3
:10154000F0810B46012100F0F9BF0000BFF34F8F7F
:1015500005480168054A01F4E06111430160BFF3E9
:101560004F8F00BFFDE700000CED00E00400FA051E
:101570000EB500210091CDE901106A4644F2010048
:10158000FFF7E4FF10B58268C368934203D000F010
:101590000BFA002010BD052010BD29B112B1531E59
:1015A000134203D0092070470E20704701608380EA
:1015B00000218160C1600846704710B58268C36829
:1015C0009A1A83889A4203D800F0F8F9002010BDD7
:1015D000042010BD70B50446234888B01E460D0097
:1015E000426035D0A888296882B22048FFF7D5FF2D
:1015F00000282ED1A889A96882B21C481030FFF7B4
:10160000CCFF002825D1202219496846FEF714FF97
:10161000A0680690207900B101208DF814008DF8A3
:101620001C60607900B10E208DF81500E078029002
:10163000A078039020780190607800900D4968466A
:1016400000F06CFD002804D19DF81D0018B104E0E5
:10165000072008B070BD00F0F1FD03480121801C97
:1016600000F0A6FDF5E70000040000204808002077
:10167000202A00008D27000010B5044607480121EC
:101680004470401C00F080FE112805D12146BDE8C1
:1016900010400348FFF791BF10BD00000400002078
:1016A000580800202DE9F0410446006800F00AFFC8
:1016B0002078174F012606FA00F038600021606894
:1016C00000F0F7FE1348144D007FA069C5F824050B
:1016D000607D217D0843C5F86C05D4E90001C5F89B
:1016E0000C05C5F81415207D01280FD10021A06834
:1016F00000F0DFFEE06800F0E5FE207B86403E6003
:10170000D4E90201C5F80815C5F81005BDE8F08157
:1017100008050050680800200020004081684068EB
:101720000968814201D20120704700207047000003
:101730002DE9FE4F83460C46584800F0ADFB584853
:1017400000F08BFA04EB540000F10408C246404656
:1017500000F092FC8146504600F08EFC0646B9F13E
:10176000000F02D14FA0FFF783FA16B94DA0FFF783
:101770007FFA41464846FEF786FE51463046FEF760
:1017800082FE002007460546029022E0E21B0BEB9A
:10179000070102AB414800F093FB02980744A742BF
:1017A00002D13E4800F08CFAA8EB050209EB0501D6
:1017B00002AB3A4800F097FA029901280D44F3D0A1
:1017C000454501D33BA043E0A74202D1334800F096
:1017D00077FAA742DAD3601B00EE100AF8EE400A4F
:1017E00000EE104AB8EE401A80EE810A10EE100AA0
:1017F000FEF754FECDE900012A46214639A0FFF745
:1018000037FAA84600273D4626E000BFA8EB0702AE
:1018100009EB070102AB224800F030FA02980744B6
:10182000474502D11E4800F076F9AAEB050271196E
:1018300002AB1B4800F07BF9029901280D44F4D05B
:10184000474502D1164800F066F9A54204D92FA0F9
:10185000FFF70EFA00F0F8FE4745D7D3294638A027
:10186000FFF706FAA54202D03AA0FFF701FA0025D9
:101870000AE000BF1BF80500715D884203D02946CD
:1018800043A0FFF7F5F96D1CA542F3D3484600F0DD
:10189000E3F8304600F0E0F8BDE8FE8F1C010020C0
:1018A0002E0700206D616C6C6F63206661696C0DA2
:1018B0000A000000636F6D7072657373696F6E204C
:1018C00073686F756C64206E6576657220657870DC
:1018D000616E642074686174206D756368720D0AAE
:1018E00000000000696E3A20257520636F6D7072EC
:1018F00065737365643A20257520726174696F3A67
:1019000020252E3266200D0A000000004465636F1A
:101910006D707265737365642064617461206973AE
:10192000206C6172676572207468616E206F7269E5
:1019300067696E616C20696E7075740D0A00000035
:101940006465636F6D707265737365643A202575A5
:101950000D0A00004465636F6D7072657373656492
:10196000206C656E67746820646F6573206E6F7499
:10197000206D61746368206F726967696E616C20A5
:10198000696E707574206C656E6774680D0A00006E
:101990002A2A2A206D69736D61746368206174203E
:1019A000257A640D0A000000826883881A40036863
:1019B0009A5C0A708168491C81607047C26883889C
:1019C0001A4003689954C168491CC16070472DE9E9
:1019D000F04F00F2124700F1100A0AEB42004FF6F6
:1019E000FF7E0025F34607EB020CB0F902600FFA08
:1019F00081F91BE0B8191CF80540415DA14211D1E5
:101A0000012406E0015D1CF80480414503D1641CFB
:101A1000A4B29C42F6D3AC4204D925461FFA86FBF9
:101A20009C4206D00AEB4600B0F90260B6EB090012
:101A3000E0D5012D06D909980580A2EB0B0080B2F4
:101A4000BDE8F08F7046FBE710B50446C0B2FFF763
:101A500013FE204610BD000010B5002821D0114B08
:101A60000022001F196803E0814203D80A46496832
:101A70000029F9D152B11368841A9C4204D100683C
:101A800018441060104602E0506000E0186039B160
:101A900002680B1A934203D10B681A44026049682A
:101AA000416010BD14000020F0B5002213464FF62F
:101AB000FF740F292DD805883DBB077B4E1E0125DD
:101AC000B540AF4225DB20E0057B9DB9068806B313
:101AD000458800F10D0705F1010C1FFA8CFCA0F8F8
:101AE00002C0ED5DC572B44502D100254580058078
:101AF00080250573C67AEDB204EA42022E4201D077
:101B000042F001026D0805735B1C8B42DCDB104662
:101B1000F0BD2046F0BD38B1817A052902D8008891
:101B2000002800D0012070474FF0FF3070472DE9AA
:101B3000FF5F1D461746040017D0B1B1ADB14FF09D
:101B40000009C5F80090CDE900174FF0030B4FF6E0
:101B5000FF784FF0050A0295A67A072E78D2DFE8C3
:101B600006F0091E3A46566272004FF0FF3004B08C
:101B7000BDE8F09F01212046FFF796FF404501D1C7
:101B8000484603E028BBA4F8069037E0A072C0B234
:101B9000B042E1D12868B8425DD10120E7E7029860
:101BA000CDF80CD001990068884212D20821204655
:101BB000FFF77AFF40450CD0C2B2208904F1190129
:101BC000C3B2401C2081CA542046039900F0E8FCAF
:101BD000D6E70120DAE749462046FFF765FF404592
:101BE00001D10220D2E708EA0021E18006E00821C5
:101BF0002046FFF759FF0146404501D15846C5E749
:101C0000E0880843401CE080A4F8049012E0FC2126
:101C10002046FFF749FF404501D10420B6E708EA16
:101C20000021A18006E004212046FFF73DFF014688
:101C3000404501D15046A9E7A0880843401CA08038
:101C40000620A3E704E06946204600F03CFD9DE73E
:101C50006FF001008BE7002089E710B504464FF4D0
:101C600086710D30FEF70FFC0020A072208060808E
:101C70002073E072A080E080208110BD70B51D4609
:101C80001346040015D0A1B19DB12088D0F10C02FB
:101C900012D09A4200D31A46164604F10D0210449F
:101CA0003246FEF7C9FB20883044208000202E6099
:101CB00070BD4FF0FF3070BD00202860012070BD66
:101CC00048B1C17A41F00101C172017B31B10929EA
:101CD00007D0012070474FF0FF307047012101739A
:101CE000F7E7002070472DE9F04FADF5037D1D4665
:101CF0001746040018D0B9B1B5B16FF0010B002F31
:101D000071D04FF0000AC5F800A0CDE9801704F2A9
:101D100012498295267B0A2E65D2DFE806F0B90BC0
:101D2000323651677A8FA6B94FF0FF300DF5037D3B
:101D3000BDE8F08F04F11008FF224FF400716846EF
:101D4000FEF79AFB20886A4600F5807083B2002077
:101D500008F1020809E019F8001032F811C028F85B
:101D600010C022F81100401C80B29842F3D363E007
:101D70002073C0B2B042CDD12868B842CAD1012088
:101D8000D4E7204600F06AFCF2E70DF50078404603
:101D9000FFF7C4FC90B1A08850B100224146204614
:101DA000FFF7CFFBE088401E20810821A17228E0C8
:101DB000012241462046FFF7C4FB15E00320D7E788
:101DC00080A8A0460090FFF7A9FC68B1B8F802000F
:101DD0000821FF3080B24044009B90F81224404616
:101DE00000F0ACFB28E055E00420C1E70DF50078D9
:101DF0004046FFF793FC20B14146204600F0D8FB57
:101E000008B10520B4E7A088401E20810421A172FA
:101E10000AE00DF500784046FFF780FC20B141460E
:101E2000204600F0C5FB08B10620A1E76188A08824
:101E300008446080A4F804A0022099E76088C0F5F7
:101E4000807080B200F58071C0F580768AB2311959
:101E5000484601F21241FEF7EFFAA4F802A02188E9
:101E6000891B218084F80CA054E7A17B80A88029DD
:101E70000AD0FFF753FC48B18298829D809B00688E
:101E8000627B411C29601A54092000E0082020735D
:101E900000204BE7584649E710B504464FF400715F
:101EA00000F21240FEF7EFFA0020208020736080DD
:101EB000E0728021A1736073A0802081A07210BDA8
:101EC0002DE9F0411F46040025D021B31FB3E07A6D
:101ED000C3076FF001001CD1237B002B19D1208890
:101EE00000F58073C0F5807086B29BB2964200D236
:101EF000324695B2E0182A4600F21240FEF79CFAEC
:101F00003D602088B5422844208001D10120207303
:101F10000020BDE8F0814FF0FF30FAE788B00020E4
:101F20000121032201FA00F313F4F01F04D083000F
:101F300003F1A043C3F80027401C2028F2D3214A14
:101F40004FF4F01010600020121D10601E4B0DF1B8
:101F5000100C0DCB8CE80D001C48CDE900011C488D
:101F600002904FF48070039003231A4A694604A834
:101F7000FFF730FB08B1FFF7FBFA17A0FEF778FE7A
:101F80000C2118A0FEF774FE08211CA0FEF770FEBD
:101F900004211FA0FEF76CFE40F2126122A0FEF7A2
:101FA00067FE4FF48D7129A0FEF762FE04242046DF
:101FB00000F0A2FA6400FF2CF9D92DA0FEF758FE1C
:101FC000FEE7000008050050142A00000000002071
:101FD0001C000020792700000A0D53746172743AC6
:101FE000200A0D00494E5055545F42554646455211
:101FF0005F53495A453A2025750D0A0057494E440A
:102000004F575F424954533A2025750D0A0000008E
:102010004C4F4F4B41484541445F424954533A204D
:1020200025750D0A0000000073697A656F662868DF
:10203000656174736872696E6B5F656E636F64650A
:1020400072293A20257A640D0A00000073697A65C6
:102050006F662868656174736872696E6B5F64652A
:10206000636F646572293A20257A640D0A000000C6
:10207000646F6E650D0A0000F0B50B30154D20F051
:1020800007010024144A0FE003688B420BD38B42F4
:1020900005D95E1A43184768C3E9006700E0436842
:1020A000136002C004E0021D10680028ECD1204635
:1020B000002802D1286808B10020F0BD064A074870
:1020C0001060074A121A22F00702C0E9002401201A
:1020D0002860D7E718000020140000208C0800209A
:1020E000882800204907090E002806DA00F00F02B0
:1020F00002F1E02282F8141D03E000F1E02282F8F0
:10210000001400F01F02012191404009800000F1FD
:10211000E020C0F88012C0F8001170472DE9F041AE
:102120001E4C07460D46E07E10B10820BDE8F08148
:1021300007B91B4F787F20773846FFF7B3FA656001
:10214000386920602800174E4FF0000516D0397FFF
:10215000207F48B1C6F81051C6F82051C6F8245166
:10216000C6F84451104804E0C6F81C51C6F8445162
:102170000E48C6F804030220FFF7B4FF207F08B121
:10218000082000E00420C6F80005E5752576A57551
:102190000120E076A5760020C8E70000680800204E
:1021A000402A0000002000401003020080000200CE
:1021B0002DE9F0411F4B1C7F3CB14FF40052B2EBB4
:1021C000104F02D01020BDE8F081D3F804C00022E7
:1021D000194D4FF404764FF40177BCF1000F05D090
:1021E00014B1C5F8086301E0C5F8087393F817E067
:1021F000BEF1000F10D01A7E52B1BCF1000F05D015
:1022000014B1C5F8046301E0C5F804731120DAE7DE
:1022100018610122197604E0D9750025D8605D7631
:102220001D761CB1BDE8F04100F066B8BDE8F04194
:1022300000F014B8680800200020004010B5064CDB
:10224000207F002806D1A07E002803D100F0F0F9FD
:102250000120A07610BD0000680800202DE9F05F85
:10226000234DA87E104301D100F0E2F9214C6868AB
:1022700030B14FF40170C4F804030020BDE8F09FB2
:102280004FF000094FF4A27AC4F844914FF4927BC6
:10229000A8465946204600F01FF905464FF48471C0
:1022A000204600F019F907465146204600F014F97F
:1022B000064647EA06012943EBD055EA060007D156
:1022C00000F08EF998F8171098F819008142E0D8BC
:1022D00088F817900DB10320D0E70EB10F20CDE79D
:1022E00098F81A10012009B12060C6E76060C4E7C1
:1022F00068080020002000402DE9F05F204C0026F7
:102300004FF48873C4F810614FF4A275C4F84461A7
:10231000C4F83405C4F838158AB1D4F8000240F086
:102320002000C4F80002DFF85C80D8F8040048B14F
:102330004FF40470C4F804030020BDE8F09F0120AE
:102340002060F0E79A46A9464FF4927B514620461A
:1023500000F0CDF805464946204600F0C8F807468B
:102360005946204600F0C3F83D430543EED088F8B7
:10237000176008B10320E0E7002FDDD00F20DCE775
:1023800000200040680800202DE9F0471E4D2A7FFC
:102390003AB14FF40053B3EB104F02D01020BDE818
:1023A000F087AB7D0BB11120F9E7A9750023A86078
:1023B000AB822AB3154C00264FF490729846C4F8AD
:1023C00020314FF4AC73C4F85881C4F84405C4F804
:1023D00048150120A060686880B992469946514628
:1023E000204600F084F807464946204600F07FF872
:1023F0000743F4D000B10F2685F816803046CEE7AB
:10240000BDE8F04700F004B8680800200020004054
:102410002DE9F05F1C4F00254FF48E7A2E46C7F849
:102420001C514FF00108C7F8088000F081F9174CE3
:10243000B815616879B123E05F465146484600F01F
:102440004BF810B9A08AB842F7D1A08AB84204D09C
:1024500000F06EF901E08346B946A08AA17D88426A
:10246000EAD3A08A584501D10F2508E04F465146CE
:10247000384600F031F80028F9D0C7F80C80A6756E
:102480002846BDE8F09F00000020004068080020BA
:1024900030B541EA4201DDE9034541EA83018000AC
:1024A00041EA042100F1A04041EA0541C0F80017CB
:1024B00030BD1CB500220B46009211460192FFF779
:1024C000E7FF1CBD1CB5002100910B4601220191C4
:1024D0001146FFF7DDFF1CBD4058002800D0012049
:1024E0007047D0F80403084000D0012070474058DE
:1024F000002800D00120704770B5C0B00546FFF736
:10250000BBFD0446AEB24FF480720B496846FDF73E
:1025100093FF0020694602E00B5C2354401CB0424C
:10252000FADB29462046FFF703F905462046FFF768
:1025300093FA40B0284670BD602A0000F0B5082923
:1025400002D0491E04D5F0BD817B80290FD0072120
:102550005FF0010606FA01F5154203D0447B857B46
:102560002C434473847B6408847307D015E0996816
:102570001C680868431C0B602254F0BD80248473DF
:102580009D68D3F800C0477B2C6804F1010EC5F8A4
:1025900000E00CF8047000244473491EDAD5F0BD45
:1025A00010B50C6889680868431C0B60225410BD84
:1025B00070B505460B46807A2989082804D9082475
:1025C0000838C140CAB202E00400CAB206D02146AF
:1025D0002846FFF7B3FFA87A001BA872204670BDFB
:1025E00009480A490022C37DC1F8082143B1D1F846
:1025F0001815437EC268D154417E491C417670470C
:10260000D1F818057047000068080020002000403D
:102610001FB501228DF8080004488DF800200191B3
:10262000D0E90012684690471FBD000068080020EE
:1026300004480021C0F82411C0F8081101210160EC
:10264000704700000020004003494FF4F01008607C
:102650000020091F0860FEE70C0500507CB5044609
:102660001023E17A4088258811F0010101D0012270
:1026700000E01A46AA1A824204DA09B108207CBD99
:1026800007207CBD00F580718AB2A2F58071281AFE
:1026900089B2102800DA83B201A800250090ADF8B5
:1026A00004502046FFF793F9A0F57F41FF3905D08C
:1026B000E080BDF80400A08003207CBD6088401C41
:1026C0006080A580F8E72DE9F05F8A460446DAE9E4
:1026D000011000680D1A28D0A0880027A84200D257
:1026E000054604F119064FF0FF08B4F806B014E0EF
:1026F0002189A1EB0B0000EA08005146305C8146BD
:1027000002462046FFF74CFF218901EA080106F83E
:1027100001902089401C20817F1CAF42E8D3A08813
:10272000401B0004000CA08000D00620BDE8F09FF4
:10273000064A0020C2F81C010548838A8168C95CEA
:10274000838A5B1C8382C2F81C15704700200040FE
:10275000680800201FB500218DF8080005488DF895
:102760000010826801928175D0E900126846904796
:102770001FBD0000680800200178022901D001294E
:1027800002D14068FEF7F4BE704700007CB50178C6
:10279000264D012909D002292CD0002929D129460A
:1027A0002348FEF7EFFE80B334E04068017820480C
:1027B0001038FEF702FF1E4C103C20B101218DF8AD
:1027C0000010019007E0A068E168081A012805D10F
:1027D00000208DF80000696868468847A068E168B5
:1027E000081AA188884204D810480121801CFFF7EC
:1027F000DFFC7CBD02218DF80010C06801900B4801
:102800000121801CFFF7D4FC0CE0FFE70121074801
:10281000FFF7BAFD06488168C0688842E9D1032005
:102820008DF800006968684688477CBD0400002078
:10283000580800202DE9FF413E4D4FF40071284615
:10284000FFF74FFE01273C4C4FF40178002600B300
:102850004FF492712846FFF73FFED0B1C5F82461CE
:10286000C5F80883A07E00B96F6002208DF80000D3
:10287000D5F88004C5F880040390E07D8DF8080049
:10288000E0680190E6752676D4E900126846904724
:1028900024E004212846FFF724FEF8B14FF48471A8
:1028A0002846FFF719FEC8B1FFF79AFEE07D617E6A
:1028B000884213D1227E3AB1607EE168E2752269D6
:1028C000E2602676667607E0A07E00B96F60C5F804
:1028D0000883E675607EE168FFF79AFE4FF48E711B
:1028E0002846FFF7F9FD58B1A18AA07D814202D2A6
:1028F000FFF71EFF04E0C5F81C6108B1FFF72AFFCF
:102900004FF4A2712846FFF7E7FD00280FD0C5F865
:102910004461A07E00B12F60E07D002807D0E675FD
:10292000607EE16804B0BDE8F041FFF771BEBDE82C
:10293000FF81000000200040680800207FB5334C74
:102940004FF492712046FFF7D2FD314D0026B0B111
:10295000C4F8246102208DF80000D4F88004C4F883
:1029600080040390D4F83C058DF80800E8680190D5
:10297000EE752E76D5E90012684690471FE04FF4B9
:1029800088712046FFF7B3FDC8B1C4F81061D4F8D0
:102990003C05E97DC0B2814211D12A7E5AB1E96875
:1029A000D4F8003223F02003C4F80032EA752A6913
:1029B000EA602E7601E0EE75E968FFF729FE4FF434
:1029C000A2712046FFF793FD50B1C4F84461E87D41
:1029D00030B1EE75D4F83C05E968C0B2FFF718FED7
:1029E0004FF490712046FFF782FD00280CD0C4F808
:1029F0002061A87D002807D0D4F84C0504B0C0B2EF
:102A0000BDE87040FFF7A6BE7FBD0000002000407B
:102A100068080020080605070100000000509D001E
:102A2000060000000800000007000000050000008C
:102A3000000000000000000000009D0003000000F6
:102A4000060000000800000007000000050000006C
:102A5000000000000000000000009D0003000000D6
:102A6000EEEFEFEFF0F0F0F0F0F0F0F0F0EFEEEE70
:102A7000EEEEEEEEEDEDECEBEAE9E8E8E7E7E6E6B0
:102A8000E6E7E7E8E9E9EAEAEAEBEBEBECEDEEEEA4
:102A9000EFF0F1F2F3F3F4F4F4F4F4F4F4F3F3F408
:102AA000F4F4F4F4F4F4F4F4F5F5F5F6F6F6F7F7D7
:102AB000F7F8F8F8F8F8F8F7F7F7F8F8F9F9F9F996
:102AC000F9F9F9F8F8F8F8F8F8F8F8F8F9F9F9F97F
:102AD000F8F8F7F7F8F8F8F8F8F8F9F9F9F9F9F873
:102AE000F8F7F6F7F7F8F9F9FAFBFBFBFAF9F9F85A
:102AF000F7F6F6F5F4F4F4F4F4F4F5F6F6F6F7F682
:102B0000F6F6F5F5F6F6F6F6F6F6F6F6F7F8F8F860
:102B1000F8F8F8F9F9FAFBFAFAF9F8F6F6F6F5F634
:102B2000F6F5F4F3F3F1F0EFEDECEBEAEAE9E9EABC
:102B3000EAEAEAEAEAEAEAEAEAEAEAEAEAE9E9E9F8
:102B4000E9EAEAEAEBEBEBEBEBECECECECECECECD3
:102B5000ECECEDEDEEEEEEEDEDECEBEBEBEBEBECB0
:102B6000506ACD023C6DCD02C01B76008C2B00005C
:102B7000000000201C000000900C0000A82B0000AA
:102B80001C0000206C480000A00C000000000000A9
:102B90000000000000000000000000000090D003D2
:082BA00000000000000000002D
:0400000500000401F2
:00000001FF
