:020000040001F9
:10B00000786D00208DB4010095B4010097B4010063
:10B0100099B401009BB401009DB401000000000040
:10B020000000000000000000000000009FB40100CC
:10B030000000000000000000A1B40100A3B4010062
:10B04000A5B40100A5B4010025B80100A5B4010014
:10B05000A5B40100A5B40100A5B40100A5B4010088
:10B06000A5B40100A5B40100A5B40100A5B4010078
:10B07000A5B40100A5B40100A5B40100A5B4010068
:10B08000A5B401007DB50100A5B40100A5B401007F
:10B09000A1B50100A5B40100A5B50100A5B401004A
:10B0A000A5B40100A5B40100A5B40100A5B4010038
:10B0B000A5B40100A5B401000000000000000000DC
:10B0C000A5B40100A5B40100A5B40100A5B4010018
:10B0D000A5B40100A5B401000000000000000000BC
:10B0E0000000000000000000000000000000000060
:10B0F0000000000000000000000000000000000050
:10B10000000000000000000000000000000000003F
:10B11000000000000000000000000000000000002F
:10B40000DFF80CD000F086F80048004771D2010048
:10B41000786D0020401E00BF00BF00BF00BF00BF0E
:10B4200000BF00BF00BF00BF00BF00BF00BF00BF24
:10B4300000BF00BF00BF00BF00BF00BF00BF00BF14
:10B4400000BF00BF00BF00BF00BF00BF00BF00BF04
:10B4500000BF00BF00BF00BF00BF00BF00BF00BFF4
:10B4600000BF00BF00BF00BF00BF00BF00BF00BFE4
:10B4700000BF00BF00BF00BF00BF00BF00BF00BFD4
:10B4800000BF00BF00BFC5D170470000064880471D
:10B4900006480047FEE7FEE7FEE7FEE7FEE7FEE7B9
:10B4A000FEE7FEE7FEE70000C9B5010001B40100B8
:10B4B00040EA01039B0703D009E008C9121F08C036
:10B4C000042AFAD203E011F8013B00F8013B521EB6
:10B4D000F9D27047D2B201E000F8012B491EFBD22D
:10B4E00070470022F6E710B513460A46044619468F
:10B4F000FFF7F0FF204610BD30B50446002003469C
:10B5000000E05B1C934203D2E05CCD5C401BF8D0B2
:10B5100030BD0000064C074D06E0E06840F0010336
:10B5200094E8070098471034AC42F6D3FFF76CFF5D
:10B53000F4E1010014E2010000F01F02012191403A
:10B540004009800000F1E020C0F88012704700F050
:10B550001F02012191404009800000F1E020C0F865
:10B560000011704700F01F02012191404009800046
:10B5700000F1E020C0F800127047000007480021E9
:10B58000C0F84011C0F84411C0F84811C0F84C117F
:10B59000C0F80011C0F8041102F084BC0010014092
:10B5A00002F01CBC074810B5406830B18047002845
:10B5B00007D0BDE8104000F077B9BDE8104001F0B9
:10B5C0000DBD10BD68450020F0B58C480022041D5B
:10B5D0000378211D081D0126062B17D125782D077C
:10B5E00014D10D78C5F30315032D03D1077817F097
:10B5F000F00F0ED0042D03D1077817F0F00F08D00C
:10B60000052D03D1057815F0F00F02D0062B09D0D7
:10B6100014E04FF08055D5F84452794FC5F34235C8
:10B620003D6002E025782D0708D10D78C5F303159C
:10B63000032D03D1057815F0F00F02D0062B06D0AC
:10B640001DE0704D2F6827F080772F601AE0257875
:10B650002D0714D10D78C5F30315032D03D10778F9
:10B6600017F0F00F0ED0042D03D1077817F0F00F6C
:10B6700008D0052D03D1057815F0F00F02D0062B68
:10B680000AD015E04FF08045C5F80C21C5F810210F
:10B690005B4D2D1F2A6002E025782D0708D10D781B
:10B6A000C5F30315032D03D1057815F0F00F02D073
:10B6B000062B05D066E0524C03236434236002E07D
:10B6C00023781B075ED10978C1F30311052959D1ED
:10B6D000007810F0F00F55D14B4800684B490860D6
:10B6E0004948001D0068091D086047480830006887
:10B6F000091D086044480C300068091D0860424874
:10B7000010300068091D08603F4814300068091DAA
:10B7100008603D48183000683C49203108603A48CC
:10B720001C300068091D0860374820300068091D7A
:10B730000860354824300068091D08603248283008
:10B740000068091D086030482C300068091D086039
:10B750002D48303000682D49403108602A48343087
:10B760000068091D0860284838300068091D086015
:10B7700025483C300068091D0860234840300068B7
:10B78000091D08601F487438016841F470010160A8
:10B79000BFF34F8FBFF36F8F4FF01021D1F800022E
:10B7A000002803DBD1F80002002822DA184B1E60C3
:10B7B00018480468002CFCD01524C1F80042056824
:10B7C000002DFCD0C1F8044201680029FCD01A60A9
:10B7D00001680029FCD0BFF34F8F0A48F038016898
:10B7E0000D4A01F4E06111430160BFF34F8F00BFC8
:10B7F000FDE70B4909480860F0BD0000E00F00F0CC
:10B800003C050040FCED00E00404001020C50040B1
:10B8100004E5014000E401400400FA050090D00373
:10B820007C4500200348007F08B102F025BC02F0EF
:10B830009FBB0000F44C002002E008C8121F08C1A2
:10B84000002AFAD170477047002001E001C1121FA1
:10B85000002AFBD1704770B500238D880C680DE07D
:10B86000E618E15C7678864206D1E018801C491E15
:10B8700010609180002070BD0B445B1C9D42EFD88E
:10B88000052070BDBFF34F8F05480168054A01F4DC
:10B89000E06111430160BFF34F8F00BFFDE700007F
:10B8A0000CED00E00400FA050EB500210091CDE991
:10B8B00001106A4644F20100FFF7E4FF014B1B68E8
:10B8C00018470000D04C002038B50C46074BA26842
:10B8D000097802EB420253F82250054A126A00929C
:10B8E000024604F108002369A84738BD684D0020CE
:10B8F00024450020074910B50A7802EB820201EBCB
:10B900008201091DFFF7E0FFBDE81040042002F0AE
:10B91000EBB80000144D002010B598B191B10F4A5A
:10B92000137893B19368022B12D014D20C4C006898
:10B9300004EBC30403F10103206061604FF00000D9
:10B94000936010BD4FF00E0010BD4FF0080010BD09
:10B950004FF0060010BD4FF0040010BD0845002058
:10B96000D849002003480021012281600270416013
:10B97000084670470845002010B5040016D000297D
:10B9800014D028480078002810D0088830281AD011
:10B990000DDC102815D0112808D17C212046FFF796
:10B9A000A0FD4FF6FF7000BFA4F8740010BD322850
:10B9B00031D03328FAD12046BDE81040091D01F0EE
:10B9C0004FBD8888F0E7C888091D40B10021204696
:10B9D00000F060FD2046BDE8104001F095BD94F8F0
:10B9E000780000EB4002C2EB401004EB4000D1F8BD
:10B9F0000A200260D1F80E10C0F80610204600F0B0
:10BA0000B5F80100D2D0002084F879002046BDE8C6
:10BA1000104000F081BD2046BDE81040091D01F036
:10BA2000AEBC00000845002010B5040009D0124843
:10BA3000027842B1826832B194F879202AB111209B
:10BA400010BD0E2010BD082010BD00224260A4F8D9
:10BA5000741084F87A20094884F878202246006817
:10BA6000206088B2012190DF0028EDD1012084F808
:10BA70007900002010BD000008450020D8490020B2
:10BA800010B586B0044600F077FD204600F030F98E
:10BA90002088192823D01B2821D104F10F000390FE
:10BAA000A07B01AAC008ADF8100003A90920FFF788
:10BAB000D2FE30B101AA03A90820FFF7CCFE00286E
:10BAC0000DD1BDF8082007A00199FFF715FD00284A
:10BAD00005D187DF064AA01D02F1080188DF06B004
:10BAE00010BD00004D756C74696C696E6B000000D0
:10BAF00084E1010000B585B00023482217490820E1
:10BB000002F03AF808B1FFF7CFFE6A46002108209C
:10BB100002F01CF808B1FFF7C7FE114801F0DCFF86
:10BB200008B1FFF7C1FE684602F006F808B1FFF75A
:10BB3000BBFE0C4801F0F6FF08B1FFF7B5FE09485F
:10BB400001F0F0FF08B1FFF7AFFE074802F02CF854
:10BB5000002801D0FFF7A8FE05B000BD90490020E5
:10BB6000A039002081BA01009DDD010008B590F8E0
:10BB7000781001EB4102C2EB411190F8772000EB05
:10BB8000410142B1521ED2B202EB420201EB8202EB
:10BB9000528A521C00E0CA88ADF800200989ADF82D
:10BBA0000210B0F87400694692DF08BD2DE9F0413B
:10BBB0003B48017801EB810100EB8104D4E90306E5
:10BBC00000EB40013648241D543000EB8100B0F8F2
:10BBD00008804589476801F08CFDB6FBF0F100FB59
:10BBE000116088B35FF0000008FB05776188A288C8
:10BBF000DFF8B08011448D190022C8F8102040B140
:10BC000001F077FD6188884221D0BD4201D1A08832
:10BC1000E8B1A06802281AD001F06BFDA188444663
:10BC20003144B1FBF0F200FB12108008C8F80C00A0
:10BC300001F05FFDB5FBF0F100FB115078B1002081
:10BC4000BD4228D068B126E0FFE70120CCE701F033
:10BC500050FDB6FBF0F10320C8F814101CE00120E1
:10BC6000EEE7ADB2BEB201F044FDB6FBF0F701F075
:10BC700040FDB5FBF0F0874201D1701B09E001F0F7
:10BC800038FD064601F035FDB5FBF0F100FB115023
:10BC9000301A800820610220BDE8F04101F024BF85
:10BCA000144D0020244500200648017801EB810155
:10BCB00000EB81000079042801D000F097B9012041
:10BCC00001F012BF144D00200146084A002000BFB9
:10BCD00000EB801302EB4303B3F874308B4203D0C4
:10BCE000401C0828F4D3082070470000804500203D
:10BCF000F8B5054600248088FFF7E6FF082804D041
:10BD0000374A00EB801102EB4104298804263829C8
:10BD10000BD039292FD03A295AD0002C5FD0294690
:10BD20002046BDE8F840FFF727BEE888A0F58071FF
:10BD3000053901D00A3906D104F17C0000F038FF42
:10BD400008B1FFF7B1FD002C49D094F8810002281A
:10BD5000E5D194F88000A98900EB400204EB820051
:10BD6000808A814203D000BF84F88160D7E7032135
:10BD700084F88110D3E7002C31D094F88110032986
:10BD8000CDD194F88010AA8901EB410304EB830123
:10BD9000498A8A42C3D1298A0129C0D10428BED246
:10BDA00010A1114E0968009195F812C000230122DC
:10BDB000311D1DF80000BCF1000F02FA00F202F480
:10BDC000F01002D008603360A9E730600B60A6E78E
:10BDD000287B10B10020FFF767FD002CC4D1F8BD0F
:10BDE00080450020111213140805005010B5427848
:10BDF000012302EB8214134A02EB440484F88130DD
:10BE0000447804EB841402EB4404A4F874100E4C40
:10BE10002178491C21704178046801EB811102EB03
:10BE20004101CC67407800EB801002EB400080F8C5
:10BE30008130B0F87410FFF7F7FD08B1FFF734FD5B
:10BE4000002010BD80450020004500207FB502463F
:10BE5000124B5178124E01EB811103EB410178CE68
:10BE60008DE8780091F881300020ABB10D4C23783B
:10BE70005B1E2370002381F881305178042909D298
:10BE80001DF8212001219140074A01F4F0111160B1
:10BE9000111D0B6004B070BD0820FBE78045002039
:10BEA00074E10100004500200805005010B54078FD
:10BEB000064B097800EB801003EB4000152902D1F6
:10BEC0000AB901F017FA002010BD000080450020DB
:10BED00010B5184B86B00FCB8DE80F001649684699
:10BEE00063DF08B1FFF7E0FC0020144A014600BF01
:10BEF00000EB801302EB4303401C83F881100828F9
:10BF0000F6D30D4C641E2170FFF72CFD08B1FFF72E
:10BF1000CBFC60788DF8120049F20100ADF81000FA
:10BF2000074904A8FFF7F8FC002801D0FFF7BCFC84
:10BF300006B010BD64E101000145002080450020ED
:10BF4000B5C101000A480B4A017801EB810100EB01
:10BF50008100C18811620079012805D0032801D031
:10BF6000042804D1FFF722BE012001F0BDBD7047B7
:10BF7000144D00202445002000EB800205480021DC
:10BF800000EB820001220171C180C0E903214161FF
:10BF900001817047144D00202DE9F041114D069E9E
:10BFA0006C78042C1BD02F783C44042C00D3241F25
:10BFB00004EB840405EB840420716261D1E9000183
:10BFC000C4E90301E38026816878401C6870064854
:10BFD000007808B9FFF7B6FF0020BDE8F081042023
:10BFE000FBE70000144D00202445002010B50E4C46
:10BFF000207800EB800004EB80010020091DFFF792
:10C0000063FC2078FFF7B8FF6078401E60702078EE
:10C01000401CC0B22070042801D100202070BDE86F
:10C020001040002001F060BD144D00202DE9F05FAC
:10C030002648C168F1B3DFF898B00E688146DBF896
:10C0400000400769C078E11B21F07F45ED1CB0B9C5
:10C05000DFF880804FF48030C8F84403C8F8040348
:10C060001120FFF769FA1120FFF771FA4FF0010A6A
:10C07000C8F800A02F20FFF7CDF989F803A0B5423A
:10C0800000D23546124BE8193C3320F07F4018604F
:10C09000DBF800105A46091B21F07F41001B20F0FD
:10C0A0007F40C91C81420FD9106818602F20FFF70C
:10C0B000B1F900E004E0BDE8F05F1120FFF752BAEB
:10C0C000BDE8F05F01F0AABCBDE8F09F4845002044
:10C0D0000415014000100140F0B5044608200D4D44
:10C0E00000234FF6FF7700BF03EB430605EB860600
:10C0F00096F80AC01CEA010F08D0BC4202D0308971
:10C10000A04202D100201360F0BD05205B1C082B6B
:10C11000EAD3F0BD704C002000EB4002074801213B
:10C1200000EB820081724FF6FF710181FF21C17225
:10C13000002101608180817170470000704C0020F7
:10C1400010B5134C207900071ED46069401C606153
:10C15000E06808B104200AE000F09EFF08B1022068
:10C1600005E0206960B16068C10704D00320BDE824
:10C17000104001F009BE40F0010060600020F6E7C9
:10C18000BDE81040FFF790BDBDE8104001F0F2BDE2
:10C190002445002006494868020707D4820702D5D3
:10C1A00040F001004860022001F0EEBD01F0E2BD68
:10C1B000244500202DE9F04104464088FFF784FD26
:10C1C000134900EB801001EB40002178D9B9114AE6
:10C1D000002149F20A065578237A12E001EB410268
:10C1E00004EB820232F80E7FB74208D19278AA425D
:10C1F00005D180F88010BDE8F04101F07BB8491C02
:10C20000C9B28B42EAD8042180F88110BDE8F081E0
:10C2100080450020004500202DE9F843054690F8B0
:10C2200078000F4600EB4001C1EB401005EB4006E3
:10C2300095F87740327904EB440006EB8001601CEE
:10C240000A31904227D16B460022284600F0FEFEBC
:10C2500020B310E0401EA04201D1002004E004EB16
:10C26000440006EB80001630804602466B462846A6
:10C2700000F0ECFE38B100203870B5F87400694663
:10C2800093DFBDE8F88395F877004146401C641CB5
:10C2900085F87700E4B23079A042DBD8012038700D
:10C2A0000020EEE72DE9FC410E46044681786A46FF
:10C2B000254801F09FF9002828D16078234F00EB32
:10C2C000400007EB8000807A400621D4022E1FD068
:10C2D000012E1FD01E4DA0781E4900EB400001EB3F
:10C2E000C001002318226846A847A8B1022E0DD02D
:10C2F0002078164900EB4000603101EB80001649C0
:10C30000807A51F82020214668469047BDE8FC819C
:10C31000124DE0E7124DDEE7022EF7D060781823C9
:10C3200000EB400007EB8000817A21F04001817230
:10C3300008496078C031C0EBC00001EB80011C22CD
:10C340006846A847D4E700001C450020704C002038
:10C35000FDDC0100704A00209CE1010061D9010070
:10C3600099D80100F8B5074608780E4614461528F6
:10C3700039D007DC214D11280BD012281AD01328F0
:10C3800031D126E021282AD0222828D023282AD1DA
:10C3900025E0706801883846FFF728FD08B1FFF7EF
:10C3A00083FA2878401CC0B2287008281BD201F0FC
:10C3B0007BFB18E03846FFF749FD08B1FFF774FA38
:10C3C0002878082801D101F06FFB2878401E2870DA
:10C3D00009E038680090684600F0EAFB00E010468B
:10C3E00008B1FFF761FA224631463846FFF75EFD95
:10C3F00008B1FFF759FA0020F8BD000002450020FF
:10C400001FB501F07BF908B1FFF74EFA1E48002472
:10C410008DF80C400068800B10F0010F31D0002027
:10C420008DF80C0003A800F075FA08B1FFF73CFA8C
:10C43000CDF805401548009002208DF804009DF8C5
:10C4400005008DF8094020F01C0040F003000C307E
:10C4500020F020008DF8050007208DF80600102040
:10C460008DF807009DF80800694640F003008DF83C
:10C470000800074800F074FB002801D0FFF714FA09
:10C480001FBD0120CCE700001005005065C301006E
:10C49000044500202DE9F041054690F878008846D3
:10C4A00000EB4001C1EB401005EB4007384601F0BE
:10C4B00097FA060029D0164C6068022825D2B5F8F4
:10C4C0007410144D00EB001005EB8003B8F1000F61
:10C4D000598008D0002105F82010181D3A2239464D
:10C4E000FEF7E6FF02E0022105F82010606800EB8D
:10C4F000001105EB8101401C0E646060A168884258
:10C5000003D1BDE8F04101F04BB8BDE8F081000077
:10C5100008450020E84900202DE9F041044690F844
:10C5200078000D4600EB4001C1EB401004EB4000E9
:10C5300001F056FA010019D00D484268022A15D2BE
:10C54000B4F874700B4C02EB021604EB8603521C19
:10C550005F80012704F826705D601964426080687E
:10C56000824203D1BDE8F04101F01AB8BDE8F08184
:10C5700008450020E84900202DE9F04F0646DB4839
:10C58000002793B00078002863D0D94D2868002890
:10C590005FD005A800F0B2F908B1FFF785F9301DAA
:10C5A0004FF0000803904FF0FF0B2A208DF816B0D3
:10C5B000ADF810008DF81480CDF81C80CC4C30887C
:10C5C000603CC14610280FD0B08807AA0221FFF7AF
:10C5D00083FD48B9079800EB400104EB8101C97A5B
:10C5E0008DF816108DF815003188DFF808A317298B
:10C5F0007DD031DC10293CD0112979D0132928D1E4
:10C60000CDF8309007990AF1C002C1EBC10302EBEB
:10C61000830201EB4101CDF8389004EB8101CDF8A4
:10C6200034900992C97A09AB01EB41020AEBC201CD
:10C63000CDE90A190022B08811467FDF002808D111
:10C64000079800EB400004EB8000817A41F0040180
:10C65000817213B0BDE8F08FA748182974D01C2947
:10C6600073D05229F5D1A97A50F8211005A888472E
:10C67000EFE707AA01214FF6FF70FFF72DFD002815
:10C68000E7D10799022201EB410004EB800082729E
:10C6900011228DF808208DF81510B188018156F807
:10C6A000061F0160B1888180B179B346817100268F
:10C6B00006EB46010AEBC100072259461030FEF78F
:10C6C0001BFF18B1761C082EF2D3D6E007980FAAEC
:10C6D00000EB400004EB8000C672817A41F0080153
:10C6E000817282488DF81660B1B2083001E048E0EE
:10C6F00018E000F07FFF002813D107981823C0EB43
:10C70000C0017C481C22C03000EB81000FA901F061
:10C710001BF87949A87A103951F8202005A90FA8EB
:10C720009047AAE0079800EB400004EB8001887A6C
:10C7300020F002008872010708D500060ED50021FE
:10C7400005A8FFF7AFFD09E05FE0A0E09DF8160047
:10C75000FF2803D000F00EFF8DF816B0079800EB0D
:10C76000400004EB8000817A490704D5697A0127EB
:10C7700021F0010169721021817212208DF80800E8
:10C780007BE0687A20F001006872079800EB4002B5
:10C7900004EB8200817A21F00403837214218DF866
:10C7A0000810B179012709B1884666E0F179490797
:10C7B00063D59DF81610FF295FD043F008038372FC
:10C7C000B37A9B0707D501EB41060AEBC603DE7D72
:10C7D00026F00106DE75C37AFF2B4ED014F8222016
:10C7E000022A0DD001EB41020AEBC20102680A6184
:10C7F00082888A8280798875C87D20F00200C87599
:10C80000012105A8FFF74EFD37E0B1790122B2EB17
:10C81000111F1FD101F00F0101291BD1079901EB55
:10C82000410304EB83018A7A160713D53048C038D8
:10C8300000EB83031620C3F80490A3F808908DF84A
:10C84000080042F060008872687A012740F0020018
:10C85000687212E0079901EB410104EB81018A7AC9
:10C8600042F080028A7215218DF80810A97A50F8DA
:10C87000211005A888474FF00008424602A905A8E4
:10C88000FFF71CF89DF80800122802D00BE01320D7
:10C8900074E7079800EB400104EB8101897A0129D4
:10C8A00001D0FFF739FC002F3FF4E2AE687A800731
:10C8B0007FF5DEAE06AA20214FF6FF70FFF70CFCD5
:10C8C00020B1687A20F002006872C2E68DF8049008
:10C8D00006988DF8050000EB400004EB8000C07A5C
:10C8E0008DF8060001A800F047FBB2E614450020D1
:10C8F000D04C0020704A0020BCE1010030B1FF2183
:10C90000017041708170C1700020704748F20E00C4
:10C91000704700002DE9FF41040037D02948002569
:10C920002E460560457285723046FFF7F5FB761C92
:10C93000082EF9D323486021C038FEF7D2FD002627
:10C94000304600F017FE761C082EF9D34420ADF8CF
:10C9500004000820ADF806001B4800901B496846FB
:10C9600000F040FF00280ED1184E0120083E307024
:10C97000207870B1BDF80400BDF80610484381B2BC
:10C98000124800F05DFE04B0BDE8F08148F20E00F0
:10C99000F9E70F4F0024A1B202AA0C4800F02AFECA
:10C9A00048B904EB440007EBC0000023182202A999
:10C9B00000F0CAFE08B13570E5E7641C082CEAD324
:10C9C000E1E70000D04C0020D5C901001C45002043
:10C9D000704A00202DE9F04F80465E4891B01D4618
:10C9E00000681A9F93468A46002850D0442F4ED89C
:10C9F0006846FFF783FF08B1FEF756FF00268DF863
:10CA00000860CDE906758DF800603446A1B209AA28
:10CA1000514800F0EFFD28B9082209A94046FEF769
:10CA20006BFDE8B1641C082CF0D300BF9DF8020038
:10CA3000FF282CD0202440220DF11409BAF1030F55
:10CA400011D0464B1827E91AB1FBF7FC0121BCF1C4
:10CA5000080F2AD2CDF80C90BBF1000F1AD01FE0BE
:10CA60008DF80240E2E7442F02D08DF8082001E063
:10CA70008DF808409DF8080040F003008DF808008C
:10CA80005A4602A96846CDF80C90FEF717FF11B080
:10CA9000BDE8F08F304A8140083A52681142F6D022
:10CAA00001F056FB8DF8084045E0DFF8B0C04FF0CC
:10CAB0001C080CF1C00CA5EB0C00B0FBF8F008282A
:10CAC00019D28DF801000CF5D671C0EBC000CDE98C
:10CAD0000E610CEB80000B909DF802008DF8084071
:10CAE00000EB400003EBC0000C900BA8CDE90670F2
:10CAF000CDF80C901FE0174B0C24C03BE81AB0FB9C
:10CB0000F4F008281FD230228DF80820C2B28DF828
:10CB100001208DF8031000EB400003F1600101EBF0
:10CB20008000807A800706D402EB420003EB80008D
:10CB30000660466086609DF80800BAF1020F05D0D5
:10CB400040F002009AE78DF80820A0E740F00100CD
:10CB500094E70000D04C00201C450020704A0020C3
:10CB6000114A10B512785AB148F20E0258B151B1BB
:10CB70000B6843B10D4A14683CB148F2040010BD83
:10CB800048F2080010BD104610BD1360074BD1F8E5
:10CB90000540603B5C664C7A83F868400979917285
:10CBA00000210170084610BD14450020D04C002023
:10CBB000F8B543490A7848F20801002A7ED018B136
:10CBC0000278002A7AD102E048F20E00F8BD3D4D0D
:10CBD0002A68002A72D04278082A0ED202EB420359
:10CBE000A5F1600404EB83039E7A012E05D0B607FD
:10CBF00064D58178FF2906D102E048F21000F8BD23
:10CC0000D97AFF290BD0D97A81702F48C2EBC201A3
:10CC100000EB810202F11201188981DF4DE02A4EFA
:10CC200000226F4648F24301B6F1C00602EB420C07
:10CC300006EBCC0C9CF817C0BCF1FF0F03D0521CC4
:10CC4000082AF3D33AE01978022902EB420106EBF5
:10CC5000C10108D0FD26CE751E680E619E888E82A9
:10CC60009B798B7501E0FE23CB753A7043789DF874
:10CC7000002003EB430304EB83030021DA7282708C
:10CC8000027802EB420205EB8202527AD20712D0FE
:10CC9000427802EB420204EB8202937A43F02003D3
:10CCA0009372007800EB400005EB8000427A42F07E
:10CCB0000202427202E000F05FF901460846F8BD48
:10CCC00014450020D04C0020304B00200E4910B5F8
:10CCD0004A788C780023A24212D0521CD2B24A70F9
:10CCE000022A00D14B70084A4B78183252F82320A0
:10CCF00002600869104420F07F400861012010BDE7
:10CD00000360002010BD000048450020002808D026
:10CD1000112801D0FEF7EEBD0248416841F008013C
:10CD2000416070472445002010B51F4C20462178F3
:10CD30004068012910D002292DD0032932D10007E3
:10CD400025D46069401C606100F0A6F9D8B1207854
:10CD5000BDE8104000F0C8BE000718D41348A28BED
:10CD6000017801EB810100EB8100C188891A090477
:10CD7000090CC18003D0BDE8104000F0C1BFBDE880
:10CD80001040FFF733B9BDE81040FEF78DBFBDE896
:10CD9000104000F09FBA0648617850F82100BDE8C5
:10CDA0001040004710BD000024450020144D002015
:10CDB000E0E1010028DFFFF7A9BF29DFFFF7A6BFE9
:10CDC0000020704700207047002070472DE9F04197
:10CDD00040780F4C00EB4003002154F8235004F13D
:10CDE00060000A4600EB830045B1867A370605D518
:10CDF000760603D404EB8301AAB2091D008903233C
:10CE0000A9DF002801D048F24100BDE8F081000010
:10CE1000104C002070B50D46014668780A4C00EBB6
:10CE2000400004EB800034230C2200F08DFC00282D
:10CE300008D1697801EB410154F82120521C01D13D
:10CE400044F8212070BD0000104C0020FEB50746BC
:10CE50000620ADF808004878234E00EB400006EBB2
:10CE600080000D460089032302AA6946AADF08BB99
:10CE70006878A6F1600400EB400004EB8000BDF888
:10CE800008206946001DFEF737FB0028687800EB94
:10CE9000400004D054F8201069B1144E0CE006EBA9
:10CEA0008001897A89071DD404EB8000002101608C
:10CEB0004160816016E00E4EBDF8082044F8202045
:10CEC0006878694600EB400004EB8000001DFEF727
:10CED000EFFA6878342300EB400004EB80010C2269
:10CEE0003846B0470020FEBD704C002061D90100DB
:10CEF00099D80100FFF76ABFFFF78CBFFFF7A6BF05
:10CF000070B51B4C207900072DD41A48017801EB2D
:10CF1000810100EB81052E6900F0EBFBE9882A898D
:10CF2000761E11443144B1FBF0F02169002549B16E
:10CF30006169814206D1E560606840F0010060608F
:10CF4000002008E000F0A8F810B10220E56002E03F
:10CF5000206920B10320BDE8704000F015BFBDE896
:10CF60007040FEF7A1BEBDE8704000F003BF0000B6
:10CF700024450020144D002070B504460078164E5C
:10CF800000EB400006EB80016078A6F1600500EB45
:10CF9000400005EB8000091D00897EDF002819D1C3
:10CFA000217801EB410106EB81014A7A42F001024E
:10CFB0004A72617801EB410105EB8102917A41F0FF
:10CFC00004019172627821F0200102EB420205EB2C
:10CFD0008202917270BD0000D04C0020F8B51A4C4E
:10CFE000207800282ED0206928B10026E06820B1E2
:10CFF000002526B110E00126F8E70125F9E768468B
:10D0000052DF052803D020B1FEF74EFC04E00126D4
:10D0100002E021690098884785B96088ADF8000072
:10D020006946A06861DF052803D020B1FEF73CFC0B
:10D0300004E0012502E0D4E902018847002EDED099
:10D04000002DD6D0F8BD00006845002010B5098934
:10D050002AB1D088491C814218D1002010BD90F817
:10D06000782002EB4204C4EB421200EB4202128928
:10D070009142F2D0491C198090F8781001EB4102DE
:10D08000C2EB411100EB4100008902E01980D08819
:10D09000401E5880012010BD70B50E48017801EB8C
:10D0A000810100EB8104256900F023FBE1882289DE
:10D0B0006D1E11442944B1FBF0F1074842698A42D0
:10D0C00005D301D1006910B14FF0000070BD4FF0E1
:10D0D000010070BD144D002024450020800701D0C0
:10D0E00000207047012070472DE9F047DFF8ACA021
:10D0F000DAF80C009AF8004080469AF80460DAF8F2
:10D100000890DAF810703AE009EBC4052A7833E0A9
:10D1100002EB42016B68521C03EBC101AB78D2B247
:10D12000934200D100220B78022B02D0032B23D193
:10D130001FE0D1F804C00346014603E0614503D077
:10D140000B46C969C1B1F9E7B1B18B4205D1C069DC
:10D1500018B9134F0126BE600027D1F800C0C96975
:10D16000D96149B10B6863440B6005E00174C06983
:10D1700000E000210028F9D169789142C8D1641EED
:10D18000E4B2C1D2CAE903078AF80460404502D07C
:10D190000120BDE8F0870020FBE7000048450020A3
:10D1A000001001402DE9F04705462F480026804633
:10D1B0000778D0F80C904BE0D8F8080000EBC704D3
:10D1C00040E002D02846ED691EE02078616800EB5F
:10D1D0004002401CC0B201EBC2012070A278904214
:10D1E00000D126700A784868012A2DD1027C5ABBEA
:10D1F0008A684260CA6882600A69C260496981615E
:10D2000098F8041001B146604268D8F81030DFF891
:10D210005CC0D11A21F07F41614502D2826811447D
:10D2200006E0991A826821F07F418A4202D9511A98
:10D23000016000E006604660012186600174C661FD
:10D2400000F012FE002DBCD1207861788842BCD15C
:10D250007F1EFFB2B0D2D8F80C10494502D0012091
:10D26000BDE8F0870020FBE748450020FFFF7F0076
:10D270001CB500240126254606FA04F010F4F01F20
:10D2800007D001222046009500231146019500F0A9
:10D2900055F8641C202CEFD30D494FF4F0100860B2
:10D2A000081D05600323CDE9005300220E2011461E
:10D2B00000F044F8FEF71EFCFEF70AFEFFF7A0F8A8
:10D2C00000F0F2FB48DF0028FCD0FEF7EDFAF9E7AA
:10D2D000080500500348416821F0080141600078CA
:10D2E00000F002BC24450020002070470020704759
:10D2F000002070471FB50221012380F881108DF8AE
:10D300000C3000228DF80D208DF8003090F8803020
:10D3100003EB430300EB83039B8AADF80420ADF8D5
:10D32000061003A90291ADF80230B0F87400694606
:10D3300098DF002801D0FEF7B7FA1FBD30B541EAEB
:10D340004201DDE9034541EA8301800041EA04210D
:10D3500000F1A04041EA0541C0F8001730BD405837
:10D36000002800D001207047D0F80403084000D006
:10D37000012070474058002800D001207047F8B5C0
:10D38000044690F878000A4600EB4001C1EB4010DB
:10D3900004EB400150880025E0BB32F8086F0879A3
:10D3A000F3B250FA86F6042E01D8034400E00423B9
:10D3B0000B71002314E000EB400603EB830702EB44
:10D3C000470701EB8606D7F802C0C6F80AC0D7F8AF
:10D3D00006C0C6F80EC07F897782401CB5825B1CF0
:10D3E0000E798642E7D894F8782000EB400002EBF3
:10D3F0004203C3EB421201EB800004EB4202C088FF
:10D400001289904212D2F0B204280FD084F877002B
:10D41000204600E00AE0FEF7A9FB010013D084F8E3
:10D4200079502046BDE8F840FFF776B884F8775089
:10D4300069462046FEF7F0FE010005D084F87950D9
:10D440002046FFF769F8F8BD9DF800000028FAD0E3
:10D4500001212046FFF71EF8204600F055F8F8BDE0
:10D46000F8B5044690F878000A4600EB4001C1EB9D
:10D47000401004EB400394F8770002F1080100EB40
:10D48000400003EB800550880A35B0B9002042F611
:10D4900002160A880FE000BF00EB400701EB4707C8
:10D4A000BF88B74206D100EB400001EB4000408846
:10D4B000688102E0401C8242EED800258DF80050C1
:10D4C00094F877001979401C884203D101208DF827
:10D4D000000011E084F8770069462046FEF79CFEC4
:10D4E000010005D084F879502046FFF715F8F8BD03
:10D4F0009DF800000028FAD001212046FEF7CAFF5F
:10D50000204600F001F8F8BD30B4044690F87A00E7
:10D510001649401CC0B284F87A0089680025884208
:10D520001FD284F8775094F87800401CC0B200EB0A
:10D530004001C1EB401104EB41020D4984F8780031
:10D5400001EBC0000121006810601571B4F874008F
:10D5500090DF010007D084F87950204630BCFEF7F8
:10D56000DBBF84F8795030BC7047000008450020CC
:10D57000D8490020094900EB400201EBC20100221A
:10D58000C1F81120A1F815200A604A608A60CA60BB
:10D59000FF220A74CA7500F0DBBD0000704A00204B
:10D5A00070B50024084D094E07E000BF04EB0410DD
:10D5B00006EB8000016C8847641CA8688442F5D3A0
:10D5C0000020686070BD000008450020E849002088
:10D5D00006490979490701D40820704720B1044958
:10D5E00049780160002070470E20704724450020D4
:10D5F000144D002030B5104B1B795B0701D4082077
:10D6000030BD18B112B104687CB901E00E2030BD04
:10D610000A4B1D684DB140681D8901FB0500596822
:10D620005B8903FB0511814201D8072030BDC2E9A7
:10D630000040002030BD000024450020684D00203F
:10D64000F8B5054621480E460079400701D4082068
:10D65000F8BD15B1286870BB01E00E20F8BD1C4C68
:10D660000027206838B361892289606801FB0201C4
:10D67000686881421FD9FFF731FD70B1D5E900021A
:10D6800000EB400004EB800043680189D41AB4FB2E
:10D69000F1FC01FB1C4474B901E01020F8BDB6FB9D
:10D6A000F1F401FB146434B92EB14089324400FB1B
:10D6B0000130824201D90720F8BD334600222946B5
:10D6C00003200097FEF768FCF8BD00002445002009
:10D6D000684D002010B54FF010204469601C04D044
:10D6E00000F007F8B4FBF0F010BD4FF08050406937
:10D6F00010BD4FF08050006980B2704770B510487F
:10D7000000242546047044702846FEF735FC6D1C45
:10D71000042DF9D30B4D6C80FFF7DCFF861EFFF75D
:10D72000E8FF46430648AE6054306C6104600481F3
:10D7300044812C70AC610420EC616860002070BDF5
:10D74000144D0020244500202DE9F843804623484D
:10D750001F46164600790D46400702D40820BDE852
:10D76000F8832DB1B8F1000F02D0286898B901E014
:10D770000E20F4E71A4C206868B16289208961683C
:10D7800002FB00116A68914205D926B1B04202D36A
:10D79000F119814201D90720E1E74046FFF79EFCDD
:10D7A000D0B13846FFF79AFCB0B16868FFF796FC35
:10D7B00090B168683246C1194046FDF779FE00967F
:10D7C0002868002200EB4000434654F82040022124
:10D7D0002846A0470020C2E71020C0E724450020CB
:10D7E000684D00202DE9F041294D04460E46287968
:10D7F000400702D40820BDE8F081ECB1E6B1206812
:10D80000D0B1FFF776FF0146A088814212D31028DD
:10D8100010D3E08870B1FFF75DFF471EFFF769FF87
:10D820004743E288A188A86802FB0102974201D31E
:10D83000890703D00720DEE70E20DCE7698801298D
:10D8400024D0C6E90010134A01EB410302EB830127
:10D850004860206842F82300A0880881E088488159
:10D86000FFF747FFA188E288401E01FB0204FFF793
:10D8700040FF94FBF0F4FFF73CFFA96804FB0010A5
:10D88000A8606888401C68800020B4E70420B2E7E4
:10D8900024450020684D0020F8B504461C481E466B
:10D8A000154600790F46400701D40820F8BD1FB186
:10D8B00014B1206898B901E00E20F8BD1548016840
:10D8C00069B142894168008902FB00116268914296
:10D8D00005D925B1A84202D3A919814201D907204F
:10D8E000F8BD3846FFF7FAFB78B13046FFF7F6FB94
:10D8F00058B16068FFF7F2FB38B12B463A46214633
:10D9000001200096FEF748FBF8BD1020F8BD00008E
:10D9100024450020684D0020104902460878002860
:10D920001AD0042818D0022A14D0032A14D10A7954
:10D9300012070FD48A69521C8A61B2F57A7F06D029
:10D94000022801D000F0D0B8487800F01DBA0D20B0
:10D95000FDF7D0BFFFF7E8B970470000244500206D
:10D96000F8B504461C481E46154600790F46400788
:10D9700001D40820F8BD1FB114B1206898B901E0A6
:10D980000E20F8BD1548016869B1428941680089D7
:10D9900002FB00116268914205D925B1A84202D369
:10D9A000A919814201D90720F8BD3846FFF796FB37
:10D9B00078B13046FFF792FB58B16068FFF78EFBF5
:10D9C00038B12B463A46214604200096FEF7E4FA89
:10D9D000F8BD1020F8BD000024450020684D00204F
:10D9E00030B50D4B00210B4A9B680FE002EBC104E0
:10D9F0008578A478AC4208D132F831400588AC4231
:10DA000003D102EBC100406830BD491C9942EDD3FF
:10DA1000002030BDD84900200845002070B50126FF
:10DA200070044FF0E0210025C1F88001084C40103F
:10DA3000C4F84803C4F8080366602F20FDF7EAFC29
:10DA4000A660044C2F202561FDF7E4FCE57070BD55
:10DA5000001001404845002009480A490022C37DC2
:10DA6000C1F8082143B1D1F81815437EC268D154DA
:10DA7000417E491C41767047D1F818057047000077
:10DA8000F44C0020002000401FB501228DF8080052
:10DA900004488DF800200191D0E9001268469047B3
:10DAA0001FBD0000F44C002008B56846FFF790FD4C
:10DAB00008B1FDF7F9FE009818B10549012048703A
:10DAC00008BD044886DF0028FAD0FDF7EDFE08BD4A
:10DAD000024500208CE1010008B5024900200091B8
:10DAE00008BD0000004500200C49087040B1012825
:10DAF0000FD002280FD003280FD14869FFF75AB979
:10DB000000208861C86106484078002805D0FEF7EB
:10DB100019BA00F0F5B800F051B87047244500205C
:10DB2000144D002018B10349C860002070470E2032
:10DB300070470000684500201CB503490191009121
:10DB4000694660DF1CBD00000045002070B50E4630
:10DB50000546144614211046FDF7C3FC0120208021
:10DB60000021216121732672657205B1A072002027
:10DB700070BDFDF787BE000070B509B18C0701D0FC
:10DB8000072070BD064C0125A160628005496360D5
:10DB900010DF0028F5D1257016202EDF70BD0000A3
:10DBA0006845002073DB010018B1034908610020BB
:10DBB00070470E2070470000684500202DE9F041B5
:10DBC000164C606820F0010060601548017801EB98
:10DBD000810100EB81063569FFF78BFDB5FBF0F79E
:10DBE0006761FFF786FDF1886D1E2944B1FBF0F0F7
:10DBF0008742606802D140F0020001E020F002009C
:10DC000060602079E16800F00200084304D0002041
:10DC1000BDE8F04100F0B8B80220F9E72445002043
:10DC2000144D002001484069FFF7C4B82445002086
:10DC300010B5FFF74FFD441EFFF75BFD4443FFF7B0
:10DC400058FD05494A69521E5043CA682146BDE83D
:10DC50001040FFF7B2B80000244500202DE9F04144
:10DC60001048017801EB810100EB81042569FFF781
:10DC700040FDE188228911442944B1FBF0F200FB08
:10DC80001216FFF727FD471EFFF733FD07FB006164
:10DC9000E08822891044044A28441269BDE8F04112
:10DCA000FFF78BB8144D00202445002010B5FFF776
:10DCB00011FD441EFFF71DFD4443FFF71AFDB4FBA1
:10DCC000F0F0BDE81040FFF775B8000070B5FFF741
:10DCD00010FD8608FFF70DFD0749496900FB01F4B7
:10DCE000FFF7F8FC451EFFF704FD68433246214666
:10DCF000BDE87040FFF761B8244500200020704760
:10DD000070B51448017801EB810100EB8104241DFA
:10DD1000FFF7EFFC6188104E884211D2FFF7E9FC53
:10DD200061880D1AFFF7E5FC8208A188E0680844C5
:10DD3000216928442944FFF740F8FFF7DAFC07E09F
:10DD4000A288E06810448A082169FFF736F86088E5
:10DD5000F06170BD144D0020244500200448007976
:10DD6000000702D4012000F00FB800F003B8000053
:10DD7000244500200348416821F0080141604078B3
:10DD800000F002B82445002002494870024951F8C9
:10DD90002000004724450020CCE1010010B50446D6
:10DDA000FFF7BAFD022C01D0032C09D105484178B8
:10DDB000002905D000214170BDE81040FFF774BE76
:10DDC00010BD00000245002003480079000701D47F
:10DDD000FDF76ABFFFF7CEBF244500202DE9F84FBD
:10DDE000204C00256846D4E903B6FEF76FFF804655
:10DDF000FFF77AF90746A946B8F1000F25D00023AE
:10DE0000009ACC46E06819E007680146974202D9BB
:10DE1000BA1A026014E0C1F800C0D1F80C80D21B1D
:10DE2000C8693B448A46B8F1000F07D0F71827F0BD
:10DE30007F47C1E90178CAF81C500D460028E3D19C
:10DE4000E0602846FFF7AEF904E02846FFF7AAF99C
:10DE500000B917B15846FEF7E9F884F80490BDE818
:10DE6000F88F0000484500200D4B10B5D96831B13E
:10DE700002680C68A24204D8A21A0A60C161D86084
:10DE800010BD0B4603E00B46C969121B21B10C689B
:10DE90009442F8D3A41A0C600260C161D86110BD2D
:10DEA000484500202DE9F0411D4DEC68002C35D08F
:10DEB0001C48002700682969B846401A20F07F46B0
:10DEC0002068B04215D82246361A0744E469107C0F
:10DED00068B182F810806B6933B1D2E905019847C7
:10DEE00028B1FDF7E1FC02E0D2E905108847002CDB
:10DEF000E6D16978A878814206D1401CC0B2A870EA
:10DF0000022801D185F802800548A978183040F828
:10DF10002170BDE8F0411420FDF724BBBDE8F0817D
:10DF20004845002004150140064A0020C2F81C01A3
:10DF30000548838A8168C95C838A5B1C8382C2F836
:10DF40001C15704700200040F44C00201FB5002134
:10DF50008DF8080005488DF80010826801928175DF
:10DF6000D0E90012684690471FBD0000F44C002025
:10DF70002DE9FF413E4D4FF400712846FFF7F4F9BB
:10DF800001273C4C4FF40178002600B34FF4927106
:10DF90002846FFF7E4F9D0B1C5F82461C5F8088335
:10DFA000A07E00B96F6002208DF80000D5F88004D3
:10DFB000C5F880040390E07D8DF80800E0680190CA
:10DFC000E6752676D4E900126846904724E00421DD
:10DFD0002846FFF7C9F9F8B14FF484712846FFF7D6
:10DFE000BEF9C8B1FFF738FDE07D617E884213D1EC
:10DFF000227E3AB1607EE168E2752269E2602676AF
:10E00000667607E0A07E00B96F60C5F80883E67504
:10E01000607EE168FFF738FD4FF48E712846FFF708
:10E020009EF958B1A18AA07D814202D2FFF77CFF00
:10E0300004E0C5F81C6108B1FFF788FF4FF4A27136
:10E040002846FFF78CF900280FD0C5F84461A07E60
:10E0500000B12F60E07D002807D0E675607EE168A2
:10E0600004B0BDE8F041FFF70FBDBDE8FF8100003F
:10E0700000200040F44C00207FB5334C4FF49271E7
:10E080002046FFF777F9314D0026B0B1C4F824617E
:10E0900002208DF80000D4F88004C4F880040390B6
:10E0A000D4F83C058DF80800E8680190EE752E76EE
:10E0B000D5E90012684690471FE04FF4887120466A
:10E0C000FFF758F9C8B1C4F81061D4F83C05E97DF0
:10E0D000C0B2814211D12A7E5AB1E968D4F8003227
:10E0E00023F02003C4F80032EA752A69EA602E762C
:10E0F00001E0EE75E968FFF7C7FC4FF4A271204616
:10E10000FFF738F950B1C4F84461E87D30B1EE75DD
:10E11000D4F83C05E968C0B2FFF7B6FC4FF4907143
:10E120002046FFF727F900280CD0C4F82061A87D0D
:10E13000002807D0D4F84C0504B0C0B2BDE8704048
:10E14000FFF704BF7FBD000000200040F44C00201A
:10E1500001218140024842688A43426070470000C2
:10E1600014450020B3585540506011E38F960800C5
:10E1700000009A6611000000120000001300000069
:10E1800014000000180030000000900100000000A2
:10E1900000000000A000500000000000F1D20100CB
:10E1A0004DCE0100C9CD0100FDCE0100EDD2010030
:10E1B00015CE0100C5CD0100F9CE0100E9D2010064
:10E1C000CDCD0100C1CD0100F5CE0100ADDC0100D7
:10E1D000CDDC010025DC01005DDC010031DC01004B
:10E1E0005DDD010095C1010041C10100C9DD0100F3
:10E1F00001CF010014E20100004500208000000072
:10E2000038B8010094E2010080450020F8270000A2
:10E2100048B80100000000000000000000000000FD
:10E2200000000000000000000000000000000000EE
:10E2300000000000000000000000000000000000DE
:10E2400000000000000000000000000000000000CE
:10E2500000000000000000000000000000000000BE
:10E2600000000000000000000000000000000000AE
:10E27000000000000000000000000000000000009E
:10E28000000000000000000000000000000000008E
:04E290000090D00327
:040000050001B40141
:00000001FF
