:020000040000FA
:10000000A0630120150400001D0400001F0400006F
:10001000210400002304000025040000000000006B
:1000200000000000000000000000000027040000A5
:100030000000000000000000290400002B04000064
:100040002D0400002D040000B10700002D04000065
:100050002D0400002D0400002D0400002D040000DC
:100060002D0400002D0400002D0400002D040000CC
:100070002D0400002D0400002D0400002D040000BC
:100080002D0400002D0400002D0400002D040000AC
:100090002D0400002D0400002D0400002D0400009C
:1000A0002D0400002D0400002D0400002D0400008C
:1000B0002D0400002D0400000000000000000000DE
:1000C0002D0400002D0400002D0400002D0400006C
:1000D0002D0400002D0400000000000000000000BE
:1000E0000000000000000000000000000000000010
:1000F0000000000000000000000000000000000000
:1001000000000000000000000000000000000000EF
:1001100000000000000000000000000000000000DF
:10040000DFF80CD000F074F80048004789120000B3
:10041000A06301200648804706480047FEE7FEE744
:10042000FEE7FEE7FEE7FEE7FEE7FEE7FEE7000089
:10043000550500000104000010B5441A034694421B
:1004400009D28418114403E011F8013D04F8013D7C
:10045000521EF9D210BD40EA0104A40703D009E0FE
:1004600010C9121F10C3042AFAD203E011F8014B7D
:1004700003F8014B521EF9D210BD10B50346C9B2A4
:1004800001E003F8011B521EFBD210BD2DE9F05F05
:100490000546002092469B468846064681464024F3
:1004A0001BE0284641464746224600F042F85346A4
:1004B0005A46C01A914110D311461846224600F000
:1004C00029F82D1A67EB01084F462246012000212A
:1004D00000F020F817EB00094E41201EA4F10104A2
:1004E000DFDC484631462A464346BDE8F09F00001F
:1004F000064C074D06E0E06840F0010394E8070071
:1005000098471034AC42F6D3FFF77EFF741D00000D
:10051000941D0000202A04DB203A00FA02F100209A
:1005200070479140C2F1200320FA03F31943904031
:100530007047202A04DB203A21FA02F0002170479C
:1005400021FA02F3D040C2F120029140084319463B
:1005500070470000F0B58C480022041D0378211D6F
:10056000081D0126062B17D125782D0714D10D78EB
:10057000C5F30315032D03D1077817F0F00F0ED044
:10058000042D03D1077817F0F00F08D0052D03D103
:10059000057815F0F00F02D0062B09D014E04FF0CB
:1005A0008055D5F84452794FC5F342353D6002E09D
:1005B00025782D0708D10D78C5F30315032D03D138
:1005C000057815F0F00F02D0062B06D01DE0704D17
:1005D0002F6827F080772F601AE025782D0714D137
:1005E0000D78C5F30315032D03D1077817F0F00F2D
:1005F0000ED0042D03D1077817F0F00F08D0052D89
:1006000003D1057815F0F00F02D0062B0AD015E0C3
:100610004FF08045C5F80C21C5F810215B4D2D1F0A
:100620002A6002E025782D0708D10D78C5F303155F
:10063000032D03D1057815F0F00F02D0062B05D05D
:1006400066E0524C03236434236002E023781B07E6
:100650005ED10978C1F30311052959D1007810F052
:10066000F00F55D14B4800684B4908604948001DC0
:100670000068091D0860474808300068091D0860C7
:1006800044480C300068091D08604248103000687A
:10069000091D08603F4814300068091D08603D4886
:1006A000183000683C49203108603A481C30006826
:1006B000091D0860374820300068091D086035486A
:1006C00024300068091D0860324828300068091D80
:1006D000086030482C300068091D08602D48303013
:1006E00000682D49403108602A4834300068091DEF
:1006F0000860284838300068091D086025483C30EB
:100700000068091D0860234840300068091D086022
:100710001F487438016841F470010160BFF34F8FC6
:10072000BFF36F8F4FF01021D1F80002002803DBD8
:10073000D1F80002002822DA184B1E60184804681D
:10074000002CFCD01524C1F800420568002DFCD017
:10075000C1F8044201680029FCD01A600168002930
:10076000FCD0BFF34F8F0A48F03801680D4A01F4FE
:10077000E06111430160BFF34F8F00BFFDE70B49FC
:1007800009480860F0BD0000E00F00F03C050040A3
:10079000FCED00E00404001020C5004004E5014029
:1007A00000E401400400FA050090D003100000208E
:1007B0000348007F08B101F00DBA01F087B90000CD
:1007C000804301200FB4054B10B503A9044A0298D9
:1007D00000F0DCF810BC5DF814FB0000E30D000035
:1007E0000C0000202DE9F0034FF0FF39DDE90A5439
:1007F000DDE90876DDE9068C38B3481C01D0022912
:1008000023D1501C01D0042A1FD1581C01D0042B25
:100810001BD1B8F1FF3F02D0B8F1040F15D1BCF1E4
:10082000FF3F02D0BCF1040F0FD1781C01D0042F80
:100830000BD1701C01D0042E07D1681C01D0042DEF
:1008400003D1601C05D0182C03D04846BDE8F00346
:100850007047BDE8F00300F00FB802E008C8121FAF
:1008600008C1002AFAD170477047002001E001C199
:10087000121F002AFBD170477FB5002100919DF81F
:100880000000019160B3002380208DF80000009AE1
:10089000802A27D000221A40012300918DF80030D1
:1008A00002238DF80330BDF80130EBB10024144071
:1008B000BDF80120D2B100238DF80100BDF8012060
:1008C0002340802A14D000221A4081258DF802503E
:1008D000BDF8013048F28014A3420BD101230AE095
:1008E0000123D1E70122D6E70124E0E70123E3E772
:1008F0000122E9E700231340BDF80120A24201D103
:10090000012200E00022009103211A408DF800101E
:1009100004218DF80510DDF80110E9B10021114026
:10092000DDF80120D2B100228DF80100DDF80100D0
:100930000A40802814D000208DF8025082211040F7
:100940008DF8031083218DF80410DDF801200E4985
:100950008A4207D1012206E00121E0E70122E3E714
:100960000120E9E700220240DDF80100884201D1C0
:10097000012000E00020104202D0002004B070BD31
:100980004FF0FF30FAE70000808182832DE9FF4FAE
:100990008BB09A460F460446002606E025280BD069
:1009A00052460D999047641C761C20780028F5D19A
:1009B0000FB03046BDE8F08F0025A94601227D49E1
:1009C00000E0054314F8013F203B02FA03F008421F
:1009D000F7D120782E2817D114F8010F45F004051F
:1009E0002A280ED06FF02F022078A0F130010929BB
:1009F0000AD809EB890102EB410100EB0109641CF3
:100A0000F2E757F8049B641C20786C280DD004DCB6
:100A10004C2812D06A2811D104E074280DD07A280D
:100A20000CD10AE045F4001507E0617845F4801523
:100A3000814202D1641C05F58015641C2078692868
:100A40003ED006DC0028B3D063280BD0642804D144
:100A500036E0732810D075285CD052460D99904727
:100A6000761CA5E017F8040B8DF8000000208DF827
:100A70000100E846012003E057F8048B4FF0FF30F7
:100A800069074FF0000501D40AE06D1C4D450DDAF1
:100A90008542FADB18F805100029F6D106E06D1C36
:100AA0008542FCDB18F805100029F8D12E4404E03B
:100AB00018F8010B52460D9990476D1EF8D277E059
:100AC00000200A90C5F302504FF00A0B02280CD008
:100AD00001CFC117021E71F100020CDA0023D0EB26
:100AE000030063EB01012D2208E0FF1D27F007073B
:100AF000F7E80201EEE72A0504D52B228DF8242021
:100B0000012203E0EA070FD02022F7E70DF12008C9
:100B1000089218E000200A90C5F302504FF00A0B2B
:100B2000022803D001CF00210022EFE7FF1D27F0AC
:100B30000707F7E80201F7E75A460A9BFFF7A6FC0A
:100B4000303208F8012D50EA0102F5D1ADEB080072
:100B500000F1200B680701D44FF00109D94502DDEF
:100B6000A9EB0B0000E000208146002506E009A863
:100B70005246405D0D9990476D1C761C0898854241
:100B8000F5DB04E0302052460D999047761CB9F110
:100B90000001A9F10109F5DC05E018F8010B524646
:100BA0000D999047761CBBF10001ABF1010BF4DC11
:100BB000641CFAE609280100BFF34F8F054801685D
:100BC000054A01F4E06111430160BFF34F8F00BF9C
:100BD000FDE700000CED00E00400FA050EB5002171
:100BE0000091CDE901106A4644F20100FFF7E4FFED
:100BF00010B58268C368934203D000F0DFF800208C
:100C000010BD052010BD29B112B1531E134203D0EF
:100C1000092070470E2070470160838000218160A9
:100C2000C1600846704710B58268C3689A1A838805
:100C30009A4203D800F0CCF8002010BD042010BD6B
:100C400010B5044609488168C2688088511A8142FB
:100C500006D10121064800F0DFFC08B1052010BDD7
:100C60002146BDE810400148FFF7C2BF60430120A4
:100C70000600002070B50446234888B01E460D00CB
:100C8000426035D0A888296882B22048FFF7BBFFB0
:100C900000282ED1A889A96882B21C481030FFF71D
:100CA000B2FF002825D1202219496846FFF7C4FB6E
:100CB000A0680690207900B101208DF814008DF80D
:100CC0001C60607900B10E208DF81500E07802906C
:100CD000A078039020780190607800900D496846D4
:100CE00000F050FC002804D19DF81D0018B104E06C
:100CF000072008B070BD00F0D5FC03480121801C1E
:100D000000F08AFCF5E700000400002060430120A9
:100D1000B81C0000251A000010B504460748012140
:100D20004470401C00F064FD112805D12146BDE847
:100D300010400348FFF777BF10BD000004000020FB
:100D4000704301202DE9F0410446006800F0EEFDFB
:100D50002078174F012606FA00F0386000216068FD
:100D600000F0DBFD1348144D007FA069C5F8240591
:100D7000607D217D0843C5F86C05D4E90001C5F804
:100D80000C05C5F81415207D01280FD10021A0689D
:100D900000F0C3FDE06800F0C9FD207B86403E60A6
:100DA000D4E90201C5F80815C5F81005BDE8F081C1
:100DB000080500508043012000200040826883889D
:100DC0001A4003689A5C0A708168491C8160704708
:100DD000C26883881A4003689954C168491CC1607D
:100DE000704710B50446C0B2FFF796FF204610BD0D
:100DF0002DE9FF4F834683B091468A46D846144674
:100E00000D46002624E000BF4FF440418D4200D83B
:100E100029460F4608EB0700F11900EB511102902B
:100E2000814217D94FF400420021109800F029FAAE
:100E300010982246CDE9006039464046069B00F0F6
:100E400057F806460698DDF80880ED1B0068044454
:100E5000142DD9D870194FF0000539D00BEB0A01C9
:100E6000091A4C4504D1EE2802D800F1110216E00F
:100E7000032805D814F8022C024304F8022C10E0D1
:100E8000122801D8C21E0AE0A0F1120204F8015B88
:100E900003E000BF04F8015BFF3AFF2AFAD804F828
:100EA000012B2246034604E040C940C240C940C26B
:100EB000083B082BF8D2042B02D340C940C21B1FA9
:100EC0002BB111F8016B02F8016B5B1EF8E70444CB
:100ED000112004F8010B04F8015B04F8015B06988B
:100EE000A4EB0901016007B00020BDE8F08F00000D
:100EF0002DE9FF4F9646DDE90DC200EB010BABF18A
:100F00001406924674460346BCF1040F02D2CCF19B
:100F1000040200E000220244D11A02EB6112521CCA
:100F2000B2420AD30398A4EB0E010160A3EB0C01BB
:100F300004B0ABEB0100BDE8F08FD2F800905D4D3E
:100F400009FB05F1890C3AF811502F18151A2AF8E7
:100F500011503D684D45DFD1A3EB0C034FF0000C61
:100F6000D11A40D0032907D814F8025C0D4304F8C5
:100F7000025C1B6823600CE010290CD8CD1E04F81D
:100F8000015B1D6825605D6865609D68A560DB6824
:100F9000E3600C4427E0122901D8CD1E0BE04FF08E
:100FA0000008A1F1120504F8018B02E004F8018B9E
:100FB000FF3DFF2DFAD804F8015B20CB20C420CBE5
:100FC00020C453F8085B44F8085B53F8045C44F809
:100FD000045C10391029F0D229B113F8015B04F830
:100FE000015B491EF8E7536804217D686B400BE004
:100FF000091D53587D586B4008D1091D53587D5821
:101000006B405518B54204D2002BF1D013F0FF0FFE
:1010100012D0D51B0A441346082910D8B5F5006F25
:101020000DD86D1E490105F00707203941EA8701F7
:1010300004F8011BE90819E01B0A491CE6E7B5F5AD
:10104000804F16D86D1E212903D8891E41F020013A
:1010500029E0202704F8017B0027213903E000BFA5
:1010600004F8017BFF39FF29FAD81CE004F8011BC2
:1010700056E7A5F580454FF00807092907EAD52767
:1010800004D8891E0F4347F010010CE047F0100709
:1010900004F8017B0027093903E000BF04F8017B55
:1010A000FF39FF29FAD804F8011BA90004F8011B35
:1010B000A909DBE79D422418F0B546180021196004
:1010C0000178144611290AD9401C113904296FD31B
:1010D00010F8015B04F8015B491EF9D126E010F815
:1010E000011B102936D211B108E0401CFF310578F0
:1010F000002DFAD00F31EDB22944401C20C820C485
:10110000491E13D004290BD320C820C4091F042969
:10111000FAD259B110F8015B04F8015B491EF8E7F7
:1011200010F8015B04F8015B491EF9D110F8011BAE
:1011300010290FD2A4F60105A5EB910110F8015B6F
:10114000A1EB85010D7804F8015B4D7804F8015B93
:1011500089785EE040290CD3651EC1F38207ED1B40
:1011600010F8017BA5EBC7054FF0FF3707EB5111D6
:1011700052E0202912D311F01F0102D008E0401CD8
:10118000FF310578002DFAD01F31EDB22944401C03
:10119000651E30F8027BA5EB97051BE010292DD3C7
:1011A00001F00805A4EBC52511F0070103D009E003
:1011B00046E0401CFF310778002FFAD0C91DFFB26E
:1011C0003944401C30F8027BA5EB9705A5424AD074
:1011D000A5F5804506291FD3671B042F1CDB80CD96
:1011E00080C4891E80CD80C4091F0429FAD209B3A6
:1011F00015F8017B04F8017B491EF8E7651EA5EB95
:10120000910110F8015BA1EB85010D7804F8015BF9
:10121000497804F8011B0DE015F8017B04F8017B07
:1012200015F8017B04F8017B15F8017B04F8017BBC
:10123000491EF9D110F8021C11F003013FF44FAF21
:1012400010F8015B04F8015B012909D910F8015B72
:1012500004F8015B022903D910F8011B04F8011BF3
:1012600010F8011B76E7A11A1960B04202D14FF0C5
:101270000000F0BD02D26FF00700F0BD6FF0030078
:10128000F0BDFFF7FAB800002DE9F0410020012180
:10129000ADF5014D5FF0030201FA00F313F4F01F06
:1012A00004D0830003F1A043C3F80027401C20288A
:1012B000F2D34C4A4FF4F01010600026101D066067
:1012C000494B06AC0DCB84E80D004848CDE9000140
:1012D000474802904FF4807003900323454A6946C3
:1012E00006A8FFF7C7FC08B1FFF778FC0420182117
:1012F000CDE904010290039000900346024601905C
:10130000022142F29000FFF76DFA50B13AA0FFF7C8
:1013100059FA4348FFF756FA03200DF5014DBDE891
:10132000F081DFF800814FF4005400250BAF00BFBF
:1013300057F8251008EB05000422FFF7A2FF6D1CEB
:10134000A542F5D33848009009AB384A21463548C4
:10135000FFF74EFD010004D035A0FFF733FA02205D
:10136000DBE721463DA0099AFFF72CFA0999A14233
:1013700004D344A0FFF726FA0020CEE700960AAB7C
:10138000284A2A480A94FFF797FE01000FD10A98CD
:10139000A0420CD1224646A00999FFF713FA4FA0AC
:1013A000FFF710FA58A0FFF70DFA6C4604E059A0B9
:1013B000FFF708FA0120B0E72046FFF741FC0028BC
:1013C000FAD100BF9DF80000FFF7A6FC0028F9D174
:1013D0009DF80000712801D05128EDD158A0FFF7E9
:1013E000F1F9FEE708050050AC1C000000000020E9
:1013F00018000020111A0000696E7465726E616C2D
:10140000206572726F72202D206C7A6F5F696E6931
:10141000742829206661696C6564202121210A00F5
:10142000F81C000018010020604300201821002053
:10143000696E7465726E616C206572726F72202DB8
:1014400020636F6D7072657373696F6E206661697A
:101450006C65643A2025640A00000000636F6D70BB
:1014600072657373656420256C7520627974657389
:1014700020696E746F20256C752062797465730A1B
:10148000000000005468697320626C6F636B206316
:101490006F6E7461696E7320696E636F6D707265D3
:1014A000737369626C6520646174612E0A000000C8
:1014B0006465636F6D7072657373656420256C7508
:1014C000206279746573206261636B20696E746F4A
:1014D00020256C752062797465730A000A6D696E47
:1014E000694C5A4F2073696D706C6520636F6D7025
:1014F00072657373696F6E207465737420706173A5
:101500007365642E0A0000000A0D53746172743A08
:10151000200A0D00696E7465726E616C20657272CE
:101520006F72202D206465636F6D707265737369CF
:101530006F6E206661696C65643A2025640A00005C
:10154000200A0D45786974210A0D00004907090E2B
:10155000002806DA00F00F0202F1E02282F8141DE2
:1015600003E000F1E02282F8001400F01F020121E4
:1015700091404009800000F1E020C0F88012C0F8DE
:10158000001170472DE9F0411E4C07460D46E07EE4
:1015900010B10820BDE8F08107B91B4F787F207794
:1015A0003846FFF7CFFB6560386920602800174E8A
:1015B0004FF0000516D0397F207F48B1C6F8105192
:1015C000C6F82051C6F82451C6F84451104804E02A
:1015D000C6F81C51C6F844510E48C6F80403022050
:1015E000FFF7B4FF207F08B1082000E00420C6F810
:1015F0000005E5752576A5750120E076A576002025
:10160000C8E7000080430120D81C000000200040F3
:1016100010030200800002002DE9F0411F4B1C7FE7
:101620003CB14FF40052B2EB104F02D01020BDE895
:10163000F081D3F804C00022194D4FF404764FF422
:101640000177BCF1000F05D014B1C5F8086301E0C3
:10165000C5F8087393F817E0BEF1000F10D01A7E9A
:1016600052B1BCF1000F05D014B1C5F8046301E01C
:10167000C5F804731120DAE718610122197604E035
:10168000D9750025D8605D761D761CB1BDE8F041A6
:1016900000F066B8BDE8F04100F014B880430120C6
:1016A0000020004010B5064C207F002806D1A07E07
:1016B000002803D100F07CF90120A07610BD0000C5
:1016C000804301202DE9F05F234DA87E104301D116
:1016D00000F06EF9214C686830B14FF40170C4F825
:1016E00004030020BDE8F09F4FF000094FF4A27AF8
:1016F000C4F844914FF4927BA8465946204600F026
:101700001FF905464FF48471204600F019F9074689
:101710005146204600F014F9064647EA06012943DF
:10172000EBD055EA060007D100F01AF998F8171027
:1017300098F819008142E0D888F817900DB103207D
:10174000D0E70EB10F20CDE798F81A10012009B1AB
:101750002060C6E76060C4E78043012000200040AD
:101760002DE9F05F204C00264FF48873C4F8106117
:101770004FF4A275C4F84461C4F83405C4F83815B0
:101780008AB1D4F8000240F02000C4F80002DFF86B
:101790005C80D8F8040048B14FF40470C4F8040326
:1017A0000020BDE8F09F01202060F0E79A46A9469E
:1017B0004FF4927B5146204600F0CDF8054649464D
:1017C000204600F0C8F807465946204600F0C3F806
:1017D0003D430543EED088F8176008B10320E0E7E9
:1017E000002FDDD00F20DCE70020004080430120E7
:1017F0002DE9F0471E4D2A7F3AB14FF40053B3EB69
:10180000104F02D01020BDE8F087AB7D0BB1112046
:10181000F9E7A9750023A860AB822AB3154C00260E
:101820004FF490729846C4F820314FF4AC73C4F86A
:101830005881C4F84405C4F848150120A0606868C0
:1018400080B9924699465146204600F084F80746F2
:101850004946204600F07FF80743F4D000B10F2638
:1018600085F816803046CEE7BDE8F04700F004B8B2
:1018700080430120002000402DE9F05F1C4F00252F
:101880004FF48E7A2E46C7F81C514FF00108C7F866
:10189000088000F099F8174CB815616879B123E019
:1018A0005F465146484600F04BF810B9A08AB8424E
:1018B000F7D1A08AB84204D000F086F801E0834650
:1018C000B946A08AA17D8842EAD3A08A584501D1B1
:1018D0000F2508E04F465146384600F031F8002801
:1018E000F9D0C7F80C80A6752846BDE8F09F000027
:1018F000002000408043012030B541EA4201DDE98B
:10190000034541EA8301800041EA042100F1A0403F
:1019100041EA0541C0F8001730BD1CB500220B4656
:10192000009211460192FFF7E7FF1CBD1CB5002194
:1019300000910B46012201911146FFF7DDFF1CBD0E
:101940004058002800D001207047D0F80403084018
:1019500000D0012070474058002800D00120704777
:1019600009480A490022C37DC1F8082143B1D1F8D2
:101970001815437EC268D154417E491C4176704798
:10198000D1F8180570470000804301200020004076
:101990001FB501228DF8080004488DF80020019140
:1019A000D0E90012684690471FBD00008043012027
:1019B00004480021C0F82411C0F808110121016079
:1019C0007047000000200040064A0020C2F81C01B9
:1019D0000548838A8168C95C838A5B1C8382C2F85C
:1019E0001C15704700200040804301201FB50021D6
:1019F0008DF8080005488DF8001082680192817505
:101A0000D0E90012684690471FBD000080430120C6
:101A10000178022901D0012902D14068FFF7DEB820
:101A2000704700007CB50178264D012909D00229B4
:101A30002CD0002929D129462348FFF7D9F880B3B3
:101A400034E04068017820481038FFF7ECF81E4C6D
:101A5000103C20B101218DF80010019007E0A06832
:101A6000E168081A012805D100208DF80000696896
:101A700068468847A068E168081AA188884204D8A7
:101A800010480121801CFFF7C7FD7CBD02218DF8A5
:101A90000010C06801900B480121801CFFF7BCFDBD
:101AA0000CE0FFE701210748FFF7A2FE0648816826
:101AB000C0688842E9D103208DF800006968684653
:101AC00088477CBD04000020704301202DE9FF41C0
:101AD0003E4D4FF400712846FFF737FF01273C4C7D
:101AE0004FF40178002600B34FF492712846FFF7B7
:101AF00027FFD0B1C5F82461C5F80883A07E00B9DE
:101B00006F6002208DF80000D5F88004C5F88004CD
:101B10000390E07D8DF80800E0680190E675267678
:101B2000D4E900126846904724E004212846FFF7D4
:101B30000CFFF8B14FF484712846FFF701FFC8B1DC
:101B4000FFF70EFFE07D617E884213D1227E3AB11D
:101B5000607EE168E2752269E2602676667607E0DB
:101B6000A07E00B96F60C5F80883E675607EE16805
:101B7000FFF70EFF4FF48E712846FFF7E1FE58B1D4
:101B8000A18AA07D814202D2FFF71EFF04E0C5F8C2
:101B90001C6108B1FFF72AFF4FF4A2712846FFF736
:101BA000CFFE00280FD0C5F84461A07E00B12F60A1
:101BB000E07D002807D0E675607EE16804B0BDE8EE
:101BC000F041FFF7E5BEBDE8FF81000000200040C6
:101BD000804301207FB5334C4FF492712046FFF7CC
:101BE000BAFE314D0026B0B1C4F8246102208DF850
:101BF0000000D4F88004C4F880040390D4F83C05B5
:101C00008DF80800E8680190EE752E76D5E900128F
:101C1000684690471FE04FF488712046FFF79BFE0F
:101C2000C8B1C4F81061D4F83C05E97DC0B2814266
:101C300011D12A7E5AB1E968D4F8003223F020038A
:101C4000C4F80032EA752A69EA602E7601E0EE7582
:101C5000E968FFF79DFE4FF4A2712046FFF77BFE77
:101C600050B1C4F84461E87D30B1EE75D4F83C055C
:101C7000E968C0B2FFF78CFE4FF490712046FFF781
:101C80006AFE00280CD0C4F82061A87D002807D087
:101C9000D4F84C0504B0C0B2BDE87040FFF7A6BE52
:101CA0007FBD00000020004080430120080605079A
:101CB0000100000000509D00060000000800000028
:101CC0000700000005000000000000000000000008
:101CD00000009D0003000000060000000800000056
:101CE00007000000050000000000000000000000E8
:101CF00000009D000300000028746869732075735C
:101D000075616C6C7920696E6469636174657320B8
:101D10006120636F6D70696C657220627567202D3C
:101D200020747279207265636F6D70696C696E677B
:101D30000A776974686F7574206F7074696D697A59
:101D40006174696F6E732C20616E6420656E6162D0
:101D50006C6520272D444C5A4F5F44454255472718
:101D600020666F7220646961676E6F737469637354
:101D7000290A0000941D000000000020140000004B
:101D80005A080000A81D0000140000208C63010008
:101D90006A080000000000000000000000000000D1
:081DA000000000000090D003D8
:0400000500000401F2
:00000001FF
